:020000040000FA
:1000000048020020D5000000EF0000007703000048
:1000100000000000000000000000000000000000E0
:10002000000000000000000000000000F3000000DD
:100030000000000000000000F50000002F04000098
:10004000F7030000FF030000070400000F04000096
:1000500077010000AD050000CD050000D5050000CA
:10006000CF030000D70300001F0400002704000096
:10007000870300008F030000950500009D05000028
:10008000A5050000C7030000B5050000BD05000080
:10009000C5050000E7030000ED050000170400009F
:1000A00067010000EF030000DD050000E50500002A
:1000B000DF030000BF0300007F0100006F010000AC
:1000C0000348854600F036F8004800475901000013
:1000D0004802002009480A4A002100A1814200D9B3
:1000E0000244084802600848804708480047FEE785
:1000F000FEE7FEE7FEE7FEE7FEE700000000002067
:100100000000000008ED00E041050000C100000013
:10011000D2B201E00270401C491EFBD2704700229F
:10012000F6E710B513460A4604461946FFF7F0FFF6
:10013000204610BD064C0125064E05E0E36807CCBD
:100140002B430C3C98471034B442F7D3FFF7BCFF65
:100150009C070000BC07000080B500F0F1F900F03A
:100160005FFA002080BD80B5C046C04680BD80B526
:10017000C046C04680BD80B5C046C04680BD80B583
:10018000C046C046C046C04680BD0000F0B58BB03A
:100190000D460446FF260A9602A82021FFF7BFFF5E
:1001A00004200C2C36D801210A46A2401B4B1A42CF
:1001B00030D048021A490A6A8243E807800D1018B5
:1001C00008620020174A202805D01358634302AD67
:1001D0002B50001DF7E70C2C00D103960020574A46
:1001E000574B00900196082816D00A96870002AD5A
:1001F000ED59CF193E68AE4208D00A9E741E0A948B
:10020000002E06D0CA62CB623D60F3E7401C019E1F
:10021000E9E707200BB0F0BD0098FBE7561100009E
:10022000000002407C070000F8B50146FF23009360
:10023000000C01D00420F8BD00933F4A1068C006AE
:1002400005D50098441E00940028F7D124E03B4CCB
:10025000D4603B4DD5600020C643166100931668FC
:1002600003273740022F0DD0009E771E0097002EE7
:1002700012D0D460D5601668022737430126B743F1
:100280001760ECE7087000931168C90606D500995D
:100290004B1E00930029F7D10920F8BDD460D5602A
:1002A0001061F8BD0448254901602549016000211D
:1002B000C94341607047C0462C000240F8B5FF2496
:1002C0000094020C01D0042230E000941A4B1A680A
:1002D000D20605D5009A551E0095002AF7D124E0D4
:1002E0000094164E164D1A6803271740012F0DD0A3
:1002F000009A571E0097002A17D0DE60DD601A684A
:1003000001271743022297431F60ECE7DE60DD60A0
:100310000022D7431F61017000941868C00607D5FA
:100320000098411E00910028F7D109221046F8BD1F
:10033000DE60DD601A61F9E7200002405A5A0000D1
:10034000A5A50000F8B500920D46064600240098C9
:1003500084420ED0FFF7A6FF295DA7193846FFF7A4
:10036000ADFF002803D13878295D8842FBD1641C99
:10037000EDE70020F8BD81B0002000900098002833
:10038000FCD001B0704780B5C046C04680BD80B586
:10039000C046C04680BD000080B501684168044A7F
:1003A00011605160006880F308885068804780BD04
:1003B0001800002009204002FFF7EEFFFEE780B59D
:1003C000C046C04680BD80B5C046C04680BD80B531
:1003D000C046C04680BD80B5C046C04680BD80B521
:1003E000C046C04680BD80B5C046C04680BD80B511
:1003F000C046C04680BD80B5C046C04680BD80B501
:10040000C046C04680BD80B5C046C04680BD80B5F0
:10041000C046C04680BD80B5C046C04680BD80B5E0
:10042000C046C04680BD80B5C046C04680BD80B5D0
:10043000C046C04680BD0000FCB5364806884588E9
:1004400081880191C488078C4E4A11460C3908688E
:100450000006430F042B0FD800942F487B441B79D0
:100460005B009F4402520B1013001368474803407F
:10047000B34218D1294848E0002046E09068404A3D
:100480000240BA4215D00120C0033EE0136B0324A2
:100490001C40032C074634D113683C480340B34248
:1004A0000AD11E4F2DE013680340AB420AD11C480D
:1004B0002BE04B20400228E013680340AB4208D1F8
:1004C000174F1EE013680340019CA34208D1154852
:1004D0001BE013680340019CA34208D1114F10E0B8
:1004E000126802400098824208D010480DE013685C
:1004F00003400098834203D00C4F02E00A4804E016
:10050000094F106BC005000F784309684905490F72
:10051000C840FCBD000C10000048E80100366E0128
:10052000408651010024F40000127A0000093D00C9
:1005300080B5FFF781FF0149086080BD10000020F1
:1005400010B50E48418B0E4A0A400E4CA1680E4B66
:100550000B409918A16000880C49014020680C4AA2
:10056000024050182060FFF7E3FF6069012109078E
:1005700062690A436261606110BDC046080C1000E8
:10058000FF0300000C20004000FCFFFFFF070000FD
:1005900000F8FFFF80B5C046C04680BD80B5C046AC
:1005A000C04680BD80B5C046C04680BD80B5C0464F
:1005B000C04680BD80B5C046C04680BD80B5C0463F
:1005C000C04680BD80B5C046C04680BD80B5C0462F
:1005D000C04680BD80B5C046C04680BD80B5C0461F
:1005E000C04680BD80B5C046C04680BD80B5C0460F
:1005F000C04680BD10B5002200290ED0037812BA83
:10060000120C5A4013061B0F53401C035C401A0681
:10061000D20C6240401C491EEEE790B210BD0000B3
:10062000F8B5494C00262661012528462946FFF7E2
:10063000ADFD0028F8D1FFF735FE44494448454A4E
:100640002681082E0ED083199B79775CBB4207D197
:1006500073189B18072B01D1FF2666705E1CEFE70D
:10066000002161702D03E97B8170297CC170297A9A
:10067000012906D1002121816A7B0078824200D0C5
:10068000A170A87A2073697A09020818A081A0785D
:10069000FF2855D1092046022B20A0800021E180AF
:1006A00080B289B281420CD8FFF7FCFDE08840029D
:1006B0008019FFF7B9FD0028F8D1A088E188491C0E
:1006C000EDE700202061A189884212D8FFF7EAFDFA
:1006D0006B2000022269115C21709019FFF7EEFD7A
:1006E0002169002803D12078725C8242FCD1481C29
:1006F000E8E73046FFF77EFFE0816081C1B22A7CE7
:100700008A42C9D1000AE97B8142C5D10021124841
:1007100021610D2905D04A5D63181A754919091818
:10072000F6E700202077FFF7BDFD681CFFF77CFD92
:100730000028FAD114340D2228462146FFF702FE84
:10074000FFF738FE0020F8BD200000202020000028
:1007500000000020E0DFFFFF01F0FFFF02E008C81B
:10076000121F08C1002AFAD170477047002001E02B
:1007700001C1121F002AFBD17047000020000000B9
:10078000170000001B00000050460000E02202009D
:1007900018000000F0000000E8030000C00700009F
:1007A00000000020180000005C070000D8070000CF
:1007B00018000020300200006C070000000000005C
:1007C00055AA0000AA55584654532D433031000015
:0807D00000093D0000000000DB
:1012000020040020D5120000F1120000FD2A000089
:1012100000000000000000000000000000000000CE
:10122000000000000000000000000000F5120000B7
:101230000000000000000000F71200006739000005
:101240008D2F0000952F00009D2F0000A52F00007E
:1012500021250000493E0000F94B0000014C000030
:10126000A12C0000A92C0000033700000B37000060
:101270000D2B0000152B0000313E0000393E000010
:10128000413E0000992C0000513E0000593E0000F4
:10129000613E00007D2F0000114E00004133000030
:1012A000231B0000852F0000014E0000094E0000A6
:1012B000B12C0000912C0000B1260000D9240000C0
:1012C0000348854600F004FC00480047151B000059
:1012D0002004002009480A4A002100A1814200D9C7
:1012E00002440848084A0260084880470848004706
:1012F000FEE7FEE7FEE7FEE7FEE7FEE70000002070
:101300000000000008ED00E0001200009D3D00001C
:10131000C112000030B50B460146002020220124F6
:1013200009E00D46D5409D4205D31D469540491B19
:101330002546954040191546521E002DF1DC30BD62
:1013400038B50446C0681821401E4843A1684018BB
:101350003C214843616840183C21484321684518B6
:1013600060690C214843216940186921C900401A6D
:10137000302100F0A5FA114A504342190846009264
:101380001A2902DB0E49511800910C2100F098FA3D
:101390000C4A5043009A801800900B4806E0491E02
:1013A000425C074B5A43009BD21800920029F6DC9E
:1013B0002146684600F0B2FA009838BD801F8607C3
:1013C000805101008033E1012C62000003460B4391
:1013D0009B0703D009E008C9121F08C0042AFAD2EB
:1013E00003E00B780370401C491C521EF9D2704771
:1013F000D2B201E00270401C491EFBD270470022AD
:10140000F6E710B513460A4604461946FFF7F0FF03
:10141000204610BD421E5378521C002BFBD10B7886
:101420001370491C521C002BF9D1704730B505468A
:101430002A460B4610781C78521C5B1C002801D0F1
:10144000A042F7D0002C03D0002802D06D1CEFE79B
:10145000284630BDCAB2401E4178401C8A4202D0A4
:101460000029F9D100207047421C0178401C002956
:10147000FBD1801A704703460A780270401C491C51
:10148000002AF9D118467047F8B502464A40D40FF1
:1014900042004B0052085B089A4202D202460846BC
:1014A00011464A0023D0C30D4A00DDB2120EAD1A18
:1014B000202D35DA49020126490AF6058A19002C41
:1014C00000D0524220214F1B1146B9402A4110182A
:1014D000C20D9A4221D0002C17D0012D08DCDA056C
:1014E000801AD20F8019D207DBB200F059FAF8BD8A
:1014F000DA05801A012340001B06C01880185A42E2
:101500008018CA0F1043490007E04908C207114379
:10151000DA05801A80194008801800F039FAF8BD01
:1015200061000122511A001BF7E70122D207514046
:10153000AAE70122D2075040A6E7024670B54A400A
:10154000D30FDB0740002DD04A002AD0010E140E25
:10155000000212020919400A520A8418E5010446E1
:101560005443000A120A2E045043A4194219200CB5
:10157000C543AA18120C0125AD03521C52191204BE
:101580007F39240400D0521C104301D44000491E6E
:10159000C2B20C06C0092018401C4008802A02D0A4
:1015A00003E0002070BD40084000002900DA002060
:1015B000184370BD70B502464A40D50F40004A003E
:1015C000ED0740085208002814D0002A12D0C40D9C
:1015D000D30D41020120C0055202490A520AE41A01
:1015E000091812187D34914201D3641C00E04900AF
:1015F000002C01DA002070BD0023914201D3891A2A
:101600000343400849000028F7D100290AD091423D
:1016100002D10121C90705E0914201D2012101E077
:101620000121C943E005C018401900F0B1F970BDAF
:10163000F0B51FB488B00B99099800244840099967
:10164000C00F490049080991C0070B990090490053
:1016500049080B9109990898A64608431CD00B9994
:101660000A98084318D0099801244000420D480008
:10167000410D099824050003000B204309900B98A5
:101680000003000B20430B9050181C494018002207
:1016900001901446104605E0002001460DB0F0BD53
:1016A000032801DA034600E003239C46C11A0AAE70
:1016B0000AE05F0008ADED5B4F00F75B7D4300275C
:1016C000AA187C41491C5B1E6145F2DD410004AB58
:1016D0005A522104120C0A43240C401C0828DFDB58
:1016E000019802900099704601910090059B049A20
:1016F0000799069800F09AF9D0E700000DFCFFFF6B
:10170000F0B50C465C4085B0E40FE40703944C0050
:10171000002664085900944649080246029622436E
:1017200021D062460A431ED06200570D4A000E03C4
:101730002303550D012402462C492405781B1B0B5D
:10174000360B401823432643614600901C46501A2E
:10175000B44103D30098401C009002E09218009816
:101760005B41002803DA0020014605B0F0BD0020EF
:10177000012109050746864611E064461D46141BF3
:10178000B54106D36546521BB341744607430C432B
:10179000A646CD0740084908284392185B410546F4
:1017A0000D43EAD11046184313D060461946504005
:1017B0007140084306D06046101AB34106D2012298
:1017C000002306E000220123DB0702E00122D243CE
:1017D0005310009874460105381C6141029C039D1A
:1017E0000019694100F015F9BFE70000FD03000092
:1017F00010B500229623114600F0D2F810BD00006B
:101800000EB505490291002100910A460B4601914F
:1018100000F00CF903B000BD33040000C20F41001A
:1018200040020123400ADB05D207090EC0187F29B8
:1018300001DA00207047962903DC9623591AC84024
:1018400001E096398840002AF4D0404270470000F9
:1018500070B5CD0F4A0009030123090B1B0519437D
:101860000B4BED070024520D9A4201DA002070BDA7
:10187000074B34339A4203DC9A1A00F035F802E041
:101880000449511888402C43F1D0404270BD0000FB
:10189000FF030000CDFBFFFFC20FD207400040084E
:1018A0000BD0C10D0723DB01C91840020905400A0E
:1018B0001143C2084007114370470020014670479A
:1018C00070B500242546002801DA01244042002991
:1018D00001DA01254942FFF71DFDAC4200D040422C
:1018E000002C00D0494270BD10B5202A04DB084608
:1018F000203AD040002110BD0B46D340D0402024D8
:10190000A21A91400843194610BD000010B50249C3
:1019100000F004F810BD00005800002070B50C461F
:1019200000683C21FFF7F6FC21603C21FFF7F2FC48
:1019300061601821FFF7EEFC0546A1600721001D3C
:10194000FFF7E8FCA1610F48A90008180E49FFF74E
:10195000E1FC0246443288086261E0613B2802D320
:10196000910700D0401C0021084B0A462161995C78
:10197000814203D8401A521C2261F8E7401CE06003
:10198000204670BD6C0B0000B505000038620000F9
:10199000002904DA401C490001D14008400070478A
:1019A00070B40024050C05D11024000402D10029D4
:1019B00021D01124050E01D100020834050F01D1F8
:1019C0000001241D850F01D18000A41C002801DB2B
:1019D0004000641C002908D020252E1B0D46F54030
:1019E000A14000D001212943084301061B1B000A26
:1019F000DB1D02D5002070BC7047DB05181880186D
:101A00000029F8DA401C4900F5D170BC40084000BC
:101A1000704710B5002B08DA0024401C6141921871
:101A20005B411A4301D14008400010BDF0B51FB41E
:101A300082B005460C0003D0084604F0C1FB02E06A
:101A400004F0BEFB2030024600902146284600F0FC
:101A500051F8049B059A04460F4618431143084366
:101A600014D0184610431BD0009840210A1A18467B
:101A70000599FFF739FF05460E46009A0599049827
:101A800000F038F8084305D0012004E0204639462C
:101A900007B0F0BD0020C11705430E432C43374368
:101AA00000990E986305401A7905E40A00220C4358
:101AB000FD0A0A3002D500200146E9E701051019A8
:101AC00069410C9C0D9D00196941FFF7A2FFDFE7FA
:101AD000064C0125064E05E0E36807CC2B430C3C81
:101AE00098471034B442F7D3FFF7EEFBF0620000E2
:101AF0001063000010B5202A04DB0146203A914013
:101B0000002010BD914020239C1A0346E340194356
:101B1000904010BD80B502F041F903F0F5FA0020C5
:101B200080BD80B500F034FA80BD0000F0B587B00C
:101B300005AD06210291284603F073FA1C2001240A
:101B4000214602F0F1F800272F7040200190032178
:101B500004913E4E2A46B047072138462A46B047F0
:101B6000384602992A46B0472646AC702C7003943A
:101B7000019C204639462A46344B984730026880FB
:101B8000082138462A46314B9847204631462A4696
:101B90002E4EB04733460B26204631462A461C4679
:101BA0009847384631462A46A0472346039C6C8016
:101BB0002C7004210291019E30462A461C4698470B
:101BC0000F2138462A46A0476F800524304621461B
:101BD00000942A461D4B9847FF20023068802F70E2
:101BE000384602992A46194B9847184B38462146E1
:101BF0002A469847304634460299049E3246A14B05
:101C000098472046394632469E4EB047022220462B
:101C10000099B047039CAC702C700C2638463146B6
:101C20002A460A4B984738463146049D2A46954B2A
:101C3000984738462946224600F0F6FC20462946B9
:101C4000224600F0F1FC07B0F0BDC046392A000082
:101C5000F8B58D480125057035480024214601F06E
:101C6000FCF8C2480168A943016028020095614957
:101C70000A6802430A6000F05FFC00F0AFF91D2023
:101C80005B4E2146B04720462146B04709202146F9
:101C9000B04710202146B04726480168564A1143F4
:101CA000016016200326244F31462A46B8471720E4
:101CB00031462246B8474027724D384621463246C3
:101CC000A847052102223846A84704213846324653
:101CD000A847009831460246174B98471748C460FA
:101CE00017490160446230310162C4623021816071
:101CF0001449CC610C620C60C46413490A4620325A
:101D0000026444660166C4668464B0030F49C86017
:101D1000394A0A604C620E480862CC640A644C6618
:101D20000A66242059490C548C744C84CC73F8BD39
:101D3000000F004080E100E029260000000D024075
:101D40000BF00000080C024015F70000800D024067
:101D5000FFCF000070B500F02DFA00F0C5F800F0DC
:101D6000AFFB00240125224E20462946B0471D2006
:101D70002946B04710202946B04700F0C9F9FFF7BF
:101D8000D5FE01F0C7F800F01FF900F02FF900F0C0
:101D90007BF9BC48016829430160280215490A689B
:101DA00082430A6000F0D0FB022003F067F90C20A8
:101DB000012100F099FC0028F9D14020032100F016
:101DC00009FE00F0A7FB00F09FFB25212F4844549B
:101DD00004870486448704872B49074A282C03D0AC
:101DE0000B191A62241DF9E700218177C17370BDB8
:101DF000293D000004200040FFFF0000FEB5002048
:101E00000190082102261F4D3246A8474027012491
:101E1000384621463246A8470B25384629463246E1
:101E2000184B9847019F384629463246154B98472C
:101E3000154D0294AC703C46FF26EE7107213846E2
:101E400000F052FE0621384600F04EFE02F050F936
:101E50007D20C00003F012F902F062F920200B4F40
:101E6000395C002902D001F07DF800E03C54642088
:101E700003F004F93C873C72FC730298A870EE7181
:101E8000FEBDC046012A000004000020880000209A
:101E9000F0B587B003AD10242846214603F0C1F801
:101EA00068460C2103F0BDF800260127304639466C
:101EB00001F03AFF7802A8800A480690402003907B
:101EC00001F0A4FE0590BF073846294602F044FF02
:101ED0003846314602F030FF3846214602F034FFE2
:101EE00007B0F0BD20A10700FEB501AC06212046D9
:101EF00003F097F81C200125294601F015FF002664
:101F00002670092730463946224600F095FD3046B6
:101F100039462A4600F0D6FD25700A273046394654
:101F2000224600F089FD304639462A4600F0CAFDB7
:101F3000FEBD00001F210901524A13688B43C006F1
:101F4000C00D1818106000207047C04602490A688A
:101F500082430A607047C046B42400400120C00399
:101F600048490A6802430A607047C046042400409A
:101F7000034909680140481E814108467047C04630
:101F8000B0240040014800687047C046A0240040CB
:101F900080B50120FFF7ECFF012808D1FFF7F2FF21
:101FA0000349086000F00AF80120FFF7CFFF80BD69
:101FB000E40000200348012101607047014800212E
:101FC00001607047C024004080B51C20012101F051
:101FD000ABFE0020022100F07DFD80BD02480168BB
:101FE00002220A400260704700240040BFB501ACE5
:101FF0000C21204603F015F810200125294601F098
:1020000093FE00F05DFA0020A072A8032081E8068C
:10201000029068070190204600F00AF8BFBD7047A3
:10202000584654532D4330315F56312E3500000051
:1020300070B5002824D00446124D01262E600220DF
:1020400002F0FAFF6078A1880143E08808436188C4
:102050000143208908432968014329602078B1029F
:102060006A688A43C007400D80186860A07A696872
:1020700004229143C007400F08186860002070BD1B
:10208000042070BD0424004080B50220FFF752FFF9
:10209000FFF764FF182001210A4600F0C5FA80BD51
:1020A00070B58EB01D200125294601F03DFE01AC22
:1020B0003421204602F0B5FF2902134E304602F0CB
:1020C000B0FF282025542146283108726805079062
:1020D000002005906906049103900C49029101903B
:1020E0000A96A9070991E9050891A90506910C909E
:1020F00000F02AFA04252846214600F03FFA284637
:1021000000F02AFA0EB070BDAC0100200100000101
:102110007CB56E460821304602F083FF0920012479
:10212000214601F001FE002000900C4801900C4D6A
:102130002846314600F0A6FE284600F087FE2846D5
:10214000214600F091FE11200221224600F06CFA97
:102150002846214600F081FE7CBDC0460001804437
:10216000000F00401FB514200124214601F0DCFDC2
:1021700068468470FF2102310180182181730B4968
:1021800081810B4902912102019101F0AFF92046B2
:1021900001F0DAF801F0ECF817200321224600F0F4
:1021A00043FA204601F0ECF81FBDC04617040000BA
:1021B00055011004BCB51C200124214601F0B4FDDA
:1021C00080250E21284600F085FC0F21284600F0CE
:1021D00081FC0325284601F0B1FD2846214601F087
:1021E00015FC022000F018FB0524204601F08EFDAE
:1021F00007480090684601F033FD204601F086FD57
:1022000001A8002181700421018001F0B1FBBCBD57
:1022100001040306F0B59BB00C46054602AE701DE6
:102220005F21FFF7ECF8202030717420F070B0705F
:10223000612070706720307001A89C4901800027E0
:10224000BC420AD0E95D01AE304602F046FF02A86A
:102250003146FFF7DFF87F1CF2E72846214602F0FF
:1022600081FE014601AD284602F037FF02AC204650
:102270002946FFF7CFF8FFF7F7F820188F49032218
:10228000FFF7A4F82046FFF7EFF8C1B2204602F0AE
:1022900045FD1BB0F0BDC046F0B59DB002910646AD
:1022A00004AC2F4964222046FFF790F803AD2D4877
:1022B0002880F1B201962C4A284690472B4F2046A1
:1022C0002946B847310A2846274EB04720462946B6
:1022D000B847274988472018264905220092FFF76A
:1022E00075F83C210298FFF715F80746C1B2284659
:1022F000B047204629461D4EB047390A28461A4A9B
:10230000904720462946B0470198029902F0D4FD33
:102310000746204616498847201817A1009AFFF75C
:1023200055F8F9B22846104EB047204629460F4AC4
:102330009047390A2846B047204629460B4A90471D
:102340000B4DA84720185D490322FFF73FF82046B0
:10235000A847C1B2204602F0E1FC1DB0F0BDC04666
:10236000446200006F6F0000DB5000001514000095
:1023700069140000D56200006435303600000000AA
:10238000F0B595B00192039106460DAF37A11E241A
:1023900038462246FFF71AF805A83CA12246FFF767
:1023A00015F804AC41482080F1B2414A20469047DC
:1023B000404D38462146A8470296310A20463C4EF9
:1023C000B04738462146A847FFF74EF838183A4933
:1023D0000522FEF7FBFF039DE9B22046B0473846D1
:1023E0002146344A9047290A2046B04738462146BC
:1023F000304A9047FFF738F83818019F2F490322D9
:10240000FEF7E4FF012F07D10DAC2046FFF72CF8B3
:10241000C1B2204602F082FC0298039902F04CFD02
:102420000646C1B204AD284602F057FE05AC204670
:102430002946FEF7EFFF310A284602F04EFE2046FD
:102440002946FEF7E7FFFFF70FF820181B49032284
:10245000FEF7BCFF022F07D105AC2046FFF704F8BA
:10246000C1B2204602F05AFC15B0F0BD6D63755F35
:10247000746D616C6C20313230320000000000005D
:102480000000000000000000000000006D63755FA8
:10249000746D616C6C206435303600000000000003
:1024A0000000000000000000000000006F6F00004E
:1024B000DB50000015140000D5620000D26200005D
:1024C00080B50448016801220A430260022002F03C
:1024D000B3FD80BD0024004080B5C046C04680BD2D
:1024E000B0B52124074D285D002805D000F012F872
:1024F00020210020685402E000F006F80120285551
:10250000B0BDC0468800002080B50020042100F046
:10251000EBFA80BD80B50020052100F0E5FA80BD12
:1025200080B500F067F880BD80001349425807234A
:102530001B049A43425070470120C0072A490A6889
:1025400082430A607047C0460120C00726490A68D6
:1025500002430A607047C046800003494258012385
:10256000DB071343435070471010024080000249BC
:1025700040584003400F704714100240F0B5002946
:1025800030D00C4628348000174BC2180020506110
:102590000D688E682E43CD6835430E692E434D6914
:1025A00035438E692E43CD69354326782E435661D7
:1025B00015690E4E2E4016618D882D040C4EAD19F6
:1025C000247ACE881769761E3E432E43E4053443B1
:1025D0001461CC6A1D6825431D600B6A9361496ACA
:1025E000D161F0BD0420F0BD00100240000030E0D9
:1025F0000000FFFF80B50420FFF7B8FF052802D1D7
:1026000003A003F003FE0420FFF78EFF80BDC04649
:10261000646174612072656369766520636F6D70B3
:102620006C657465210D0000B0B500280BD41F2324
:10263000034001249C401A4B1C60032304469C4326
:10264000184BE31806E00F230340083B0324A34381
:10265000124C1B198407E40E8907090EA140FF25BF
:10266000A5401C68AC430C431C60012A08D100281B
:1026700012D41F210840012181400C480160B0BDE7
:10268000002809D41F21084001218140064801602B
:10269000BFF34F8FBFF36F8FB0BDC0461CED00E09E
:1026A00080E200E000E400E080E100E000E100E022
:1026B00080B5C046C046C046C04680BDF8B5091AC0
:1026C000490ACDB2461C0027F8B285420AD9400219
:1026D000341800F095F8204600F054F80028FAD19C
:1026E0007F1CF1E7F8BD0000F0B58BB00D46044645
:1026F000FF260A9602A82021FEF781FE04200C2C5A
:1027000036D801210A46A2401B4B1A4230D048025B
:102710001A490A6A8243E807800D101808620020EF
:10272000174A202805D01358634302AD2B50001DD3
:10273000F7E70C2C00D1039600205E4A5E4B009018
:102740000196082816D00A96870002ADED59CF19D8
:102750003E68AE4208D00A9E741E0A94002E06D02F
:10276000CA62CB623D60F3E7401C019EE9E70720A7
:102770000BB0F0BD0098FBE75611000000000240CE
:10278000A8620000F8B50146FF230093000C01D0B9
:102790000420F8BD0093464A1068C00605D500988D
:1027A000441E00940028F7D124E0424CD460424DEE
:1027B000D5600020C6431661009316680327374092
:1027C000022F0DD0009E771E0097002E12D0D460ED
:1027D000D5601668022737430126B7431760ECE738
:1027E000087000931168C90606D500994B1E009326
:1027F0000029F7D10920F8BDD460D5601061F8BD7B
:1028000004482C4901602C4901600021C943416002
:102810007047C0462C0002402549264ACA60264A15
:10282000CA600A680C239A438007000F10180860DA
:1028300000207047F8B5FF240094020C01D0042258
:1028400030E000941A4B1A68D20605D5009A551E3E
:102850000095002AF7D124E00094164E164D1A6810
:1028600003271740012F0DD0009A571E0097002A0A
:1028700017D0DE60DD601A680127174302229743F4
:102880001F60ECE7DE60DD600022D7431F6101704E
:1028900000941868C00607D50098411E00910028D2
:1028A000F7D109221046F8BDDE60DD601A61F9E754
:1028B000200002405A5A0000A5A50000F8B5009279
:1028C0000D4606460024009884420ED0FFF798FF7C
:1028D000295DA7193846FFF7ADFF002803D13878E6
:1028E000295D8842FBD1641CEDE70020F8BD026839
:1028F000CA40012010407047FEB52A4C2AA120464C
:10290000FEF794FD002843D02A492046FEF78EFDAD
:10291000E5B2471B0837F8B2261804460D213046A9
:10292000FEF798FD311F0978012200925F2937D107
:10293000F11E09786D2933D1B11E097863292FD191
:10294000401BC11BC9072BD0711E0978752927D1DF
:10295000C0B2C01EC10F4018401002906708019716
:10296000FDB20298A84215DB6C000E482018807852
:1029700003F0FAFB0646601C0A49085C03F0F4FB0E
:10298000000130430199691A0B4A50547F1CE7E754
:102990000020FEBD02980199401A401CBB49887274
:1029A0000098FEBDAC010020676174745F6D6375B3
:1029B00000000000C86200004801002010B5044A71
:1029C00080180024224600F0C3FF204610BDC046F8
:1029D000100E024080B5034A8018012200F0B8FFB3
:1029E000002080BD140D024010B592001018094A55
:1029F00080180024224600F0ABFF204610BDC046E0
:102A000080B592001018034A8018012200F0A0FF40
:102A1000002080BD300D024080B5024A8018FFF7CB
:102A200066FF80BD040D024080B5024A8018FFF7A2
:102A30005EFF80BD000E0240FEB515460E460190B9
:102A40001949471838460C30002431462246029472
:102A5000164B98471E4801990818B1000C502A7867
:102A600038463146114CA04738461C306A7831460A
:102A7000A04738462030AA783146A047384624304F
:102A8000EA783146A0472C372A7938463146A047A4
:102A900068790121C903064A13688B43C007000CFB
:102AA000C01810600298FEBD000D024051390000B0
:102AB000080F024080B5024A8018FFF718FF80BD5A
:102AC000080D0240024BC01889000A5000207047D0
:102AD000000C024080B5034A8018012200F038FF44
:102AE000002080BD0C0D024080B5034A80180122F1
:102AF00000F02EFF002080BD100D024081B00020AC
:102B0000009000980028FCD001B0704780B5C04606
:102B1000C04680BD80B5C046C04680BDF8B50546FC
:102B200040200621FFF756FF0024082C21D268B26E
:102B30000028009504D440200721FFF74BFF03E055
:102B400040200721FFF7D0FF4025062628463146C2
:102B5000FFF7CAFF0127384602F06EFA28463146D1
:102B6000FFF738FF384602F067FA641C009D6D00DD
:102B7000DBE7F8BDF8B54024072620463146FFF7CD
:102B8000B3FF062520462946FFF7AEFF012738464A
:102B900002F052FA20463146FFF71CFF384602F099
:102BA0004BFA20462946FFF715FFF8BDF8B540243B
:102BB000062720463946FFF70DFF07252046294600
:102BC000FFF708FF01263046074988472046394667
:102BD000FFF78AFF3046044FB84720462946FFF7E3
:102BE00083FF3046B847F8BD39500000B0B5012426
:102BF000204602F021FA40200621FFF775FF20460B
:102C000002F01AFA002540200721FFF753FF0128A0
:102C100007D1681CE9087D290546F4D3FFF7C6FFF4
:102C200004E040200621FFF7D5FE00242046B0BD79
:102C300010B58EB001AC08A132222046FEF7C6FBCB
:102C4000CD480021C1732046FEF70EFCC1B22046DC
:102C500002F064F80EB010BD6E6F64655F7265734C
:102C600065740D0A00000000000000000000000074
:102C70000000000000000000000000000000000054
:102C8000000000000000000000000000880000209C
:102C900080B5C046C04680BD80B500F00DF880BD4F
:102CA00080B5C046C04680BD80B5C046C04680BD28
:102CB00080B5C046C04680BDF8B5514800F0DBF88D
:102CC000012800D09AE04F48017801263143017075
:102CD0004D48007800280AD0402000252946FFF7FB
:102CE0009BFE002804D149480088451C00E00025CF
:102CF00046480580464D2988464A1078002800D06D
:102D0000481C2880FF272C37434B197880B20029B4
:102D100007D0B8420DD900201070791C2980187096
:102D200007E0C0087D2804D33C4800211170401CF6
:102D300028803B4C20780007800F03D0394800885A
:102D4000401C00E00020374908807D2040010988B0
:102D5000814220D1207840070BD4207800071AD573
:102D600001F026FA2078F7210140217020782021F7
:102D700007E001F01DFA2078FB2101402170207846
:102D8000102101432170284800210180012022499F
:102D9000087020490870F54802780C21114001D0D4
:102DA0006988491C698089B2C937B94223D11F4A51
:102DB0000021117003785B0603D403785B0707D505
:102DC00004261378FA241C401470137833431370CC
:102DD00003785BB2002B04D403781B0709D50223C8
:102DE00000E008231478F5252540157014781C435D
:102DF000147002780170024800F028F8F8BDC0464F
:102E0000000F0040880000208B000020BC00002044
:102E1000840000208E0000208F000020E7030000C7
:102E200004000020B6000020C00000208D0000201B
:102E300005490A68042313430B6001228240086895
:102E40001043086030BF704710ED00E080B51430CB
:102E500000210A4600F07CFD80BD80B50A460C309A
:102E6000002100F075FD80BD80B50A460C300A21B6
:102E700000F06EFD80BD80B510300021FFF737FDFA
:102E800080BD0000B0B50A78C3683024A343920720
:102E9000920E9A18C2604A7801235C02C568A54365
:102EA000D207920D5219C2608A781B02C4689C43F3
:102EB000D207D20D1219C260CA78C3680824A3438E
:102EC000D207120F9A18C2600A79C3680424A34378
:102ED000D207520F9A18C2604A79C3680224A343EA
:102EE000D207920F9A18C2607D22D200130405D037
:102EF000521EC3681B06F9D5120407D0C988426860
:102F0000034B1340591841600020B0BD0920B0BDEB
:102F10000000FFFFFEB501AD0624284621460094BF
:102F200002F07FF81C200127394600F0FDFE002644
:102F30002E712E706F804027384621462A46FFF7B3
:102F40007BFD0724384621462A46FFF775FD3846A3
:102F500000993246FFF7B6FD384621463246FFF764
:102F6000B1FDFEBD80B500200521FFF733FD202017
:102F7000014901220A5480BD8800002080B5C04666
:102F8000C04680BD80B5C046C04680BD80B500F05B
:102F90000DF880BD80B500F0EBF880BD80B5C0466F
:102FA000C04680BD80B5C046C04680BDF8B5DC498E
:102FB000002008800C21FFF737FD012808D1DF48E9
:102FC000017802220A43027000200C21FFF7F6FC70
:102FD0000025082428462146FFF726FD012850D168
:102FE000D048058040200126022731463A46FFF7A7
:102FF00007FD0B2128463A46FFF702FDCA48007834
:10300000002833D1C94802780178120721D4002959
:1030100027D00278017805231A4221D0C90709D0A8
:103020000178490706D4C4490A7852000A700A7820
:1030300032430A700178C90715D10178490712D5C2
:10304000BD490A7852000A700A78FE2313400B70BB
:1030500009E00F2903D1B6490A78120774D4017820
:103060000570B3490C7001782143017000240825D4
:1030700020462946FFF7A2FC022220462946FFF7F8
:10308000B3FC00240B212046FFF7CEFC01285AD1C7
:10309000A44804800821022520462A46FFF7B0FCF8
:1030A00040200B212A46FFF7ABFC9F480078002800
:1030B0003ED19E4801780278C90726D10178002ABE
:1030C00031D00A22114226D0017889070AD5017829
:1030D000090707D498490A7852000A700A78012330
:1030E00013430B70017889070AD40178090707D5C3
:1030F00091490A7852000A700A78FE2313400B7037
:10310000017801220A43027012E00F2A03D1884994
:103110000A78D20721D101780470854901220A700A
:103120000178114303E0824A0123137019430170AF
:1031300000240B2520462946FFF740FC02222046AA
:103140002946FFF751FCF8BD7A4A13885B1C1380AF
:10315000E54A15700278057084E7764A13885B1C8F
:103160001380E14A147002780470D7E78C000020C5
:10317000F8B5DC480024048040270526384631464F
:10318000FFF71CFC042538462946FFF717FC384694
:103190002146FFF749FC012809D16848017801223E
:1031A0000A43027040200021FFF708FCF8BD4020D0
:1031B00001273946FFF738FC012837D159480480E8
:1031C0000821022620463246FFF71AFC40200B2138
:1031D0003246FFF715FC54480078002871D1534857
:1031E0000278017852075FD4002965D001780A225D
:1031F00011425FD00178090709D50178890706D403
:103200004D490A7852000A700A783A430A700178E8
:10321000090753D40178890750D547490A785200E5
:103220000A700A78FE2313400B7047E040200B2100
:10323000FFF7FAFB01286BD13A4804800B210225E5
:1032400020462A46FFF7DCFB4020012739462A4664
:10325000FFF7D6FB3448007800284ED13348027877
:103260000178920730D4002942D00178314231D020
:103270000178490709D50178C90706D12E490A788E
:1032800052000A700A783A430A700178490731D42B
:103290000178C9072ED028490A7852000A700A78A6
:1032A000FE2313400B7025E00F2903D120490A7833
:1032B000520714D4017804701D490D700178294318
:1032C0000170402401251AE00F2903D118490A781A
:1032D00092071ED416490D70017804700AE0154A51
:1032E00013885B1C1380804A147002780470E4E732
:1032F0000F490D7001782943017040240B252046A9
:103300002946FFF75BFB022220462946FFF76CFBAC
:10331000F8BD754A1470074A13885B1C1380DAE7FE
:10332000D2000020D400002089000020900000205E
:103330001B020020C00000200B0000208C00002099
:1033400080B500F08BF880BDF8B50446BE4D032172
:103350000026064F28463246B84704212846324602
:10336000B847062128462246B847F8BD5139000023
:1033700080B5B5480321002200F0EAFA80BDC046BE
:1033800080B502469848072100F0E2FA80BDC046A9
:1033900070B5FF230233984211D202460120C503C3
:1033A000084C2668AE43C907090C71182160FE332A
:1033B0001A402168044B0B401343236070BD042066
:1033C00070BDC0463014004000FEFFFF80B59E482F
:1033D0000321FFF78CFA80BDBFB501AC204600F099
:1033E000A9F803A8FEF792FAA3790F211D090B4053
:1033F0000A225543EB18DBB26433436163791D093C
:103400000B405543EB18DBB25B1E036123791D09AA
:103410000B405543EB18DBB2C360E3781D090B404A
:103420005543EB18DBB28361A3781D090B4055436C
:10343000EB18DBB2836063781D090B405543EB1832
:10344000DBB24360237819401B0953435918C9B2B2
:103450000160FDF775FF04B0B0BD000010B5FFF7C7
:10346000B5FF01282BD117480078002803D0164853
:103470000078401C00E000201349087013480078D1
:10348000002803D112480078002803D011480168B1
:10349000491C016010480078002808D00F4C208893
:1034A00002F072FE20800E480188491C01800D4800
:1034B0000188491C01800C480178491C0170FFF704
:1034C00057FF10BDA3000020A2000020990000209B
:1034D00098000020EC0000209A000020B800002096
:1034E000BA000020D200002091000020B0B50446B0
:1034F0000020FFF745FF20783B4D296808229143C3
:10350000C007000F08182860601C00F047F82079F9
:10351000072109026A688A434007400D80186860E5
:10352000E0886179FFF734FF0834204600F05EF848
:10353000B0BDC0462C490A6812060CD54A68012362
:1035400013434B60144A002A05D0521C4B689B075A
:10355000F9D5002A1ED08A680270CA6842700B68CA
:103560000A691B0701D41F231A4082708A690271FD
:103570004A69C270CA6942710A6A82714868012246
:10358000904348600A680020120602D54A689207F4
:10359000FCD470470920704718FCFFFF10B50146A6
:1035A000007801229303104A14689C43C007400C22
:1035B000001910600B780020012B07D0002B12D1CE
:1035C00089780723194014689C430AE049783F2909
:1035D00001D9042010BD3F231B0214689C438906B7
:1035E000890C6118116010BD0014004010B5164917
:1035F0000A1F13681B060BD50B6801241C430C60C3
:103600007D23DB005B1E1C041CD00C68A407F9D5CD
:1036100003784B6043788B608378CB6003794B6190
:1036200043798B618379CB61C07808610868012395
:103630009843086012680020120602D50A689207B3
:10364000FCD410BD092010BD04140040FEB502904A
:1036500002A8FEF75BF90546067D643EF0B20A2437
:103660002146FDF757FE21464143711A00010843E8
:103670006E46B071287C471CF8B22146FDF74AFE21
:1036800021464143791A0001084370712F7B384667
:103690002146FDF73FFE21464143791A00010843C8
:1036A00030712F7E38462146FDF734FE21464143D6
:1036B000791A00010843F0702F7A38462146FDF749
:1036C00029FE21464143791A00010843B0702F7941
:1036D00038462146FDF71EFE21464143791A000176
:1036E000084370702D7828462146FDF713FE4443A9
:1036F000291B0001084330703046FFF777FF002098
:10370000FEBD80B5C046C04680BD80B5C046C0463F
:1037100080BD0000F0B585B00291064603A85F2188
:10372000017186480390FFF757FE0146844DAA8B2E
:10373000844F388F0304D218EA61834C24786406DE
:1037400003D4814C2478E40603D57A6E92B21A43EE
:10375000EA617D4F3C78A40709D53C78FD273C42BF
:1037600005D1784A526E92B21343EB611A46312367
:103770005A24EC542C46313401251323009563530D
:10378000E072170EA7726272130A2372E1710D0ABA
:10379000A5710D0C6571090E2171E6706A4E3178C4
:1037A0004025029E002E019510D129400ED02946B9
:1037B000634D68543F216F543E2100236B543D21DB
:1037C0006B5491B2FEF768FDE86917E05E4F3978F7
:1037D000029E002E4AD149B2002947D500212F462A
:1037E000574D2E46E9553F25715535463E217254B9
:1037F0003D21735491B2FEF74FFDF069010C562242
:10380000504FB95258217852F87B002812D00298B4
:10381000002844D0787B002841D04B48007802280B
:1038200039D1787E002836D003A85E2101710321AA
:10383000C17031E04E26B85BF97F434A1269434BB1
:103840009A4238D8002936D07D21C900884232D822
:103850003D48006910222146FFF730F8B85B401C54
:10386000B853394908691030086124E03978029D5D
:10387000002D2AD01025294027D03E210023304D8D
:103880006B543D216B542F4F019BF95AE954090A9F
:103890003F23E9544AE003A80521FEF7BBFC787BEF
:1038A000002806D133200521295410212046FEF797
:1038B000B1FC002078730020019978527886E86185
:1038C00000993977786605B0F0BD3978029D002DF2
:1038D0001ED0202529401BD00021194D2E46019DC8
:1038E00071553F25715535463E2172543D21735423
:1038F000144F798E090A3922B154798E3A22B15483
:10390000798EFEF7C9FCF08B56217852788E79E7D4
:10391000397802290A4D0B4F00D075E73D2100236D
:103920006B5429463D31CB708B704B7091B2FEF7D2
:10393000B3FCE869010C562263E7C0465A0502024F
:10394000040100208800002004000020EFFF000098
:1039500001238B40012A02D10168194301E001686B
:1039600099430160704780B5C046C04680BD0000E5
:10397000B0B504460578042D18D8A80001A1085850
:103980008746C046E939000099390000B139000086
:10399000BF390000DB3900001B48016803220A43DD
:1039A0000260016830220A4302601CE004251BE02B
:1039B0000320800214494A6802434A6013E0124817
:1039C00081680C220A438260816803220A43826074
:1039D000816830220A43826005E00720C0030A495B
:1039E000CA6A0243CA6200252078012100F00EF85D
:1039F000207800F0B3F9607800F012F9A07800F0B8
:103A00001FF92846B0BDC0461020004070B50C46D6
:103A1000DB4DDC49A960DC49A9602E6A042815D871
:103A2000784400794000874402132D3D5800601E01
:103A300021468141286801229043401828600020D7
:103A4000002C65D0E9680905FCD561E004205FE041
:103A500001200007296A014329622F48016C0322D3
:103A60000A430264601E21468141480029680222FF
:103A70009143081828600020002C49D02969490684
:103A8000FCD545E0601E214681418800296804225A
:103A90009143081828600020002C39D06969C904B6
:103AA000FCD535E001200007296A01432962032083
:103AB000800319490A6802430A60601E2146814159
:103AC000C800296808229143081828600020002CAB
:103AD0001ED0A9694906FCD51AE0012001042A6A12
:103AE0000A432A620B490A6802430A60142001F063
:103AF000A3FA601E214681410801296810229143E2
:103B0000081828600020002C02D0E96B4903FCD57E
:103B10002E6270BD002400408C0D0240FCB58E4822
:103B20000688458881880191C488078CAC4A114673
:103B30000C3908680006430F042B0FD80094714815
:103B40007B441B795B009F4402520B1013001368E7
:103B5000A5480340B34218D1274848E0002046E07A
:103B600090689E4A0240BA4215D00120C0033EE050
:103B7000136B03241C40032C074634D113689A4866
:103B80000340B3420AD11C4F2DE013680340AB42FF
:103B90000AD11A482BE04B20400228E0136803406A
:103BA000AB4208D1154F1EE013680340019CA342AD
:103BB00008D113481BE013680340019CA34208D1BD
:103BC0000F4F10E0126802400098824208D00E4861
:103BD0000DE0136803400098834203D00A4F02E0CF
:103BE000084804E0074F106BC005000F78430968D0
:103BF0004905490FC840FCBD00366E0140865101A1
:103C00000024F40000127A0000093D0080B5FFF79F
:103C100085FF5B490968C904890FC84080BDC0465B
:103C20005749584A8A60584A8A60072212020B682C
:103C300093434007400D1818086000207047C046A5
:103C40004F49504A8A60504A8A600322D2020B6868
:103C500093438007C00C1818086000207047C046C6
:103C6000F0B53D490E884D888C88C9888278032A32
:103C700040D15B4A17685C4B1F40B74202D1C678FF
:103C8000022E3DD816681E40AE4202D1C578022DE4
:103C900036D815681D40A54202D1C478032C2FD810
:103CA00012681A408A4202D1C178062928D80378BE
:103CB00003214C034A4A156BA5439B075B0C5B1918
:103CC00013634378146B1C25AC435B07DB0EE318CE
:103CD0001363C3780F246401156BA5431B07DB0D29
:103CE0005B19136380780840136B8B4318181063BB
:103CF0000020F0BDC178034A4A4303498A42D6D91D
:103D00000620F0BD0048E801006CDC020721C90371
:103D1000044A13688B434007800B1818106000207A
:103D20007047C0463C20004080B50A460146024824
:103D3000FFF70EFE002080BD202000404000064915
:103D4000405A2949014026480268284B1340591817
:103D5000016000207047C046000C100080B5084983
:103D6000084A8A60084A8A600A68E0239A43400742
:103D7000000E1018086000F009F8002080BDC04651
:103D8000002000405A5A0000A5A5000080B5FFF7AA
:103D9000C5FE0149086080BD4C00002010B50E48EA
:103DA000418B0E4A0A400E4CA1680E4B0B409918ED
:103DB000A16000880C49014020680C4A024050185C
:103DC0002060FFF7E3FF60690121090762690A4388
:103DD0006261606110BDC046080C1000FF03000066
:103DE0000C20004000FCFFFFFF07000000F8FFFF71
:103DF000B0B50D460446002000F04CF8681E0328BC
:103E000015D8C0467844007940008744010305076F
:103E1000CF4804E0D04802E0D04800E0D048007825
:103E2000002C01D0402100E0002100F09BF9B0BD42
:103E300080B5C046C04680BD80B5C046C04680BD86
:103E400080B5C046C04680BD80B5C046C04680BD76
:103E500080B5C046C04680BD80B5C046C04680BD66
:103E600080B5C046C04680BD10B5002000F012F8F5
:103E7000B74800787721B74CA047B74800784F2162
:103E8000A047B64800780E21A047B54800780F211A
:103E9000A04710BD80B54820012100F063F980BD26
:103EA000FEB50746724807807248017000910029EC
:103EB00073D004240020E1B20191C5B201998D4272
:103EC00000D3CDE002903E46BFB20A2438462146D8
:103ED000FDF720FA0A2F52D3032D11D80246C0460F
:103EE0007D442D796D00AF44010D1E310A21384605
:103EF0001746FDF70FFA6048415C954800782DE0C1
:103F0000374639E014460A213846FDF703FA00988F
:103F100000282AD0594802785748415C8E480078DA
:103F2000002A10D125E014460A213846FDF7F2F99F
:103F30000098002815D0514802784F48415C8748C6
:103F40000078002A15D18022514012E05443301BE2
:103F500080B24949095C82480078174600F002F9AE
:103F60000AE04548415C7D4802E04348415C7A48AC
:103F7000007800F0F7F827460298401C9DE7032DD3
:103F80006ED8C0467D442D796D00AF44012835447C
:103F9000F0B23949095C6E485FE00124384680B2CE
:103FA0000A2804D30A21FDF7B5F9641CF7E7E0B24B
:103FB000032835D002283AD0012800D07AE7664895
:103FC00000780024CF4D2146A84764480078214658
:103FD000A847634800782146A84701246AE700986B
:103FE000002831D025480278F0B22349095C5A48AC
:103FF0000078002A0CD131E00098002829D01F4811
:104000000278F0B21C49095C54480078002A25D196
:104010008022514022E0F0B21749095C50481CE070
:104020004F480078002100F09DF8032442E74B48F8
:1040300000780024214600F095F849480078214690
:1040400000F090F8022435E7F0B20B49095C4248D1
:1040500003E0F0B20849095C4048007800F082F8BB
:10406000064802460078414241411170FEBDC046FB
:10407000BE00002005000020100200201C020020CD
:1040800070B500242046FFF705FF0C480078002893
:1040900001D0472500E078252D480078994E294623
:1040A000B0472D4800782946B0472C4800783F217A
:1040B000B0472B4800782146B04770BD060000206D
:1040C000B0B500242046FFF7E5FE214800788D4D6D
:1040D0002146A847204800782146A8471F48007875
:1040E0002146A8471E4800782146A847B0BDC046D3
:1040F000B0B50020FFF7CEFE154800787F24814D33
:104100002146A847144800782146A847134800785C
:104110002146A847124800782146A847B0BDC046AE
:10412000B0B500242046FFF7B5FE094800783F21CE
:10413000744DA847084800782146A84707480078EA
:104140002146A847064800782146A847B0BDC0468A
:104150000700002065410000080000200900002041
:104160000A000020B0B504460F48007800280BD0A4
:104170000E480078002801D10D4603E07F20C0439F
:104180000D460543682C00D00D46FEF7F3FC204693
:10419000FEF7C4FCFEF72AFDE8B2FEF7BFFCFEF70F
:1041A00025FDFEF703FDB0BD0D00002097000020A7
:1041B00010B58EB001AC07A132222046FDF706F9FA
:1041C0002046FDF751F9C1B2204600F0A7FD0EB020
:1041D00010BDC0466D63755F746D616C6C203039C5
:1041E000663035620D0A000000000000000000008B
:1041F00000000000000000000000000000000000BF
:104200000000000000000000F0B585B07D208000B7
:104210000490002039493B4D0870C0B203286AD889
:1042200040270326384603973146354A90470120F8
:10423000FFF730FEDC4CA0790E21A84760793F21C2
:104240000291A84720793E210191A847E0784F21AB
:10425000A84704982C498847384600963146FEF70F
:10426000B9FBA07900273946A84760793946A847A5
:1042700020793946A847E0783946A847049C20466B
:104280002149884700F0C8FD039831461C4A9047F1
:10429000C54EB0797A21A84770790299A84730793C
:1042A0000199A847F0783946A8472046164988471B
:1042B000039E3046009C2146FEF78CFBBA4880796D
:1042C0003946A847B84948793946A847B6480079D9
:1042D0003946A847B448C0783946A84704980A49DF
:1042E000884700F099FD30462146054A904703492A
:1042F0000878401C90E705B0F0BDC0461A020020C7
:10430000E92A0000654100007D500000B0B5044678
:10431000D54DA97A00F026FEA97A0919491E097817
:10432000884201D1A078B0BDE02000F06DFCB0BDA6
:10433000F8B50446CC4EB17A00F014FEB17A0919F2
:10434000491E0978884220D1736FE17822790802EA
:10435000801870675D1CA84201D3522573534E2309
:104360000093F35A33256F02984210D25023F35A28
:10437000C01803013124BD48412C15D02546313DDC
:104380003D43ED5C0555641CF6E7E0201DE000268A
:104390004D2E12D070023818451C2846FEF7F2F94F
:1043A0000028FAD1761CF3E74223C25441228154FB
:1043B00031301221FDF72EFFF8BD0020EC49009AA4
:1043C0008852086578480761A07800F01DFCF8BDA8
:1043D000F8B50546E64CA17A00F0C4FDA17A49196A
:1043E000491E0978884208D1602017492152A56EDC
:1043F000164EB54205D8174804E0E02000F004FC52
:10440000F8BD13483227B542394600D82D216943FB
:104410000818B54202D8FF21123100E0CD21FCF787
:1044200079FFB54200D805273818C1B2642900D3F6
:104430006420632160546034F820A0700421204679
:10444000FDF7E8FEF8BDC0465A050000DC09000093
:10445000D612FEFF2474FEFFB0B50446F14DA97AD2
:1044600000F080FDA97A0919491E0978884205D112
:10447000EE4814300B21FDF7CDFEB0BDE02000F07A
:10448000C3FBB0BDB0B5E74DA97AE74C204600F0BC
:1044900069FDA97A0919491E097888420CD1FEF7ED
:1044A000AFF9074D2846FEF76DF90028FAD1DF482D
:1044B00001214177A07800E0E02000F0A5FBB0BD2D
:1044C00001100000B0B5D74DA97AD74C204600F0B6
:1044D00049FDA97A0919491E0978884219D1A0789D
:1044E00000F092FBFFF7C0FC40240325204629463C
:1044F000FEF7FAFAFEF79CFBFEF79AFB1920400143
:1045000000F0BCFD20462946FEF764FA00F084FC6A
:10451000B0BDE02000F078FBB0BDC046F8B5044661
:10452000F44DA97A00F01EFDA97A0919491E0978EF
:1045300088421FD100266E7401276F75EE480178FE
:10454000C90619D4017889061CD40178890720D5B9
:104550000078BD2108421CD14448C069009080B257
:104560003C21FCF7D7FE01460098000CFDF794FEB5
:104570002E870EE0E02014E001780670EF740178D9
:10458000422204E001780670EF74017882220A4327
:10459000027024202E546E73EE8534480662AF718B
:1045A000A07800F031FBF8BD04000020BCB56846DF
:1045B000002101710D480090DC4DA97ADC4C2046A9
:1045C00000F0D0FCA97A0919491E0978884209D15E
:1045D0004E20295A68460171090AC1700521FDF76C
:1045E00019FEBCBDE02000F00FFBBCBD5A06080060
:1045F000F8B50446CD4DA87A801E81B2204600F061
:10460000FBFCA97A0919491E0978AA7A1219921E87
:10461000127812025118814214D12179134B5E8B0A
:10462000E77854202A5A360471183E02711829522C
:1046300099618BB2002B07D09B1A012B04D02A5210
:10464000E1200DE0E0200BE00D2251436B20000241
:1046500008184221685280B2611DFEF72FF9A07838
:1046600000F0D2FAF8BDC046880000200401002006
:1046700070B5FEF741F9AD4CA07B002800D070BDAD
:104680000025A573AA4EB0780146F0390F290FD83E
:104690007944097949008F4407272B2F20332020A4
:1046A000373B3E4120202044A148FFF72FFE49E040
:1046B000411E07290CD8C0467944097949008F4426
:1046C00003340C380C0C3C3F994800F0B1F839E049
:1046D000442802D1FFF7D6FE34E0A07A042831D373
:1046E000E02000F091FA2DE0914800F017FA29E05F
:1046F0008F4800F041FA25E08D48FFF7ADFE21E03C
:104700008B48FFF775FF1DE08948FFF761FE19E050
:1047100000F0C0F916E0FFF7D5FE13E000F044F812
:1047200010E0834800F008F90CE0FA48FFF7F6FEC5
:1047300008E0F848FFF7FCFD04E000F0E1F801E0D4
:10474000FFF734FF25730B4802680B490A400260EB
:104750000A4A642D04D00023735553556D1CF8E7A5
:10476000491C02680A4302600020E07270BDC04626
:104770008800002020100240FFFFFF7FAC010020D6
:1047800070B50025074E4A2D0AD068028419FEF73D
:1047900037F82046FDF7F6FF0028FAD16D1CF2E746
:1047A000002070BD016A0000F8B5F24DA97AD94C1D
:1047B000204600F0D7FBA97A0919491E09788842DA
:1047C00011D1A07800F020FA3320460200274D2FA7
:1047D0000DD078023018441C2046FDF7D3FF002886
:1047E000FAD17F1CF3E7E02000F00EFAF8BD4E206E
:1047F000002129522965A14806614024032520464D
:104800002946FEF771F9FEF713FAFEF711FA19209F
:10481000400100F033FC20462946FEF7DBF800F0AB
:104820003DFBC04688000020480100200400002015
:10483000F8B50446ED4EB17A00F094FBB17A09194F
:10484000491E0978884220D1A079617909020D18A2
:10485000207900042818E17809064718002D16D0A1
:10486000380C14D1FFF7A4FC012070738348017841
:10487000002101700278122313430370318775877A
:1048800071662846FFF70CFB2DE0E0202FE0FFF7D4
:104890008FFC01207073002D19D1380C17D0308691
:1048A000482001252946FFF75DFC308E134940184A
:1048B00080B22946FFF7F4FA002070666F490A7843
:1048C00008700A78222313430B7030870BE02520F1
:1048D00000213154694802780170027802231343A1
:1048E0000370716631870120F071B071A07800F01B
:1048F0008BF9F8BD8800002004000020102700007C
:10490000B0B5BA4DA97A834C204600F02BFBA97AAA
:104910000919491E0978884204D1E07805490870D0
:10492000A07800E0E02000F06FF9B0BD8800002022
:104930004801002056000020F0B585B00446AB4D7C
:10494000A97A00F00FFBA97A0919491E0978884253
:1049500011D102940124EC773320460200274D2F19
:104960000DD078023018451C2846FDF70BFF0028B3
:10497000FAD17F1CF3E7E02000F046F97CE04E20FE
:1049800000229A490A5201920A653C4806618D6EDE
:10499000974EB54201D83B4800E039483227B5422E
:1049A000394600D82D2169430818B54202D8FF21A5
:1049B000123100E0CD21FCF7ADFCB54200D805274F
:1049C0003818C1B2029DA87800F060F9874F787856
:1049D000002840D17C7001982C4D032833D80490D6
:1049E00000F01AFA2020039000263E54782738461B
:1049F000A847FDF789FDFEF7B5FA3846A847FDF749
:104A000089FD3846A84708203146214A1446904778
:104A10003846A84758203146A0473846A8476F2057
:104A2000C000012421461A4A90473846A847164834
:104A30002146174A904738466C4FA8470498039977
:104A40007E54401CC9E720200021395401210E4822
:104A5000FFF726FA029DFEF7EBF8E879A97909023B
:104A60000818697909044018297909064018F86678
:104A7000FEF7ECFD0198B87005B0F0BD0400002011
:104A8000D612FEFF2474FEFFB82200007D50000005
:104A9000A13E000070B5EF4EB17A1E4D284600F0E1
:104AA00061FAB17A4919491E097888422ED1442009
:104AB000315A6B20000200F09FFA04463067C0B202
:104AC0002979814222D1260AE878B0421ED1A878FD
:104AD00000F09AF8FDF794FE01200503681CFDF72D
:104AE00051FE0028FAD1434924310D222846FDF712
:104AF000E5FE09498E70CC700D3506222846FDF77B
:104B0000DDFE142000F0BAFA00F0C8F9E02000F051
:104B10007BF870BD480100205000002070B50446AD
:104B2000CC4EB17A00F01EFAB17A0919491E097803
:104B3000E025884219D10120F077A0796F21715CBE
:104B40000906081861790902081821790904401832
:104B5000F066FF2109068843E17809064018F066EF
:104B6000FEF774FD002800D1A578284600F04CF827
:104B700070BDC04688000020BCB504461A480190AC
:104B8000B44DA97A204600F0EDF9A97A0919491E19
:104B9000097888421DD1A86E1549884205D8402061
:104BA0000521FDF739FF002819D0207B617B000229
:104BB00040184421685224200E49312805D022187B
:104BC000213A12780A54401CF7E7FFF7D9FD002874
:104BD00003D0E02000F018F8BCBDA078FAE701A8E7
:104BE0000421FDF717FBBCBD5A05F2FF8800002029
:104BF000DC0900000401002080B5C046C04680BD2D
:104C000080B5C046C04680BD70B59CB0044603ADBB
:104C1000681D5F21FCF7F3FB202028717420E870E9
:104C2000A870612068706720287002A83849018048
:104C30006D4600262E7114480090EC700521284620
:104C400000F090F92871052E0BD06846815D02AC0A
:104C5000204600F042FA03A82146FCF7DBFB761C55
:104C6000F1E703AC2046FCF7FFFB20182A4903229A
:104C7000FCF7ACFB2046FCF7F7FBC1B2204600F086
:104C80004DF81CB070BDC0465A05F000F0B59DB09F
:104C90000D46044604AE701D5F21FCF7B0FB2020DA
:104CA00030717420F070B0706120707067203070C7
:104CB00003A81749018001AE0027B7803571154858
:104CC0000190F4700521304600F04CF97071062F08
:104CD0000BD001A8C15D03AC204600F0FEF904A88A
:104CE0002146FCF797FB7F1CF1E704AC2046FCF75C
:104CF000BBFB201808490322FCF768FB2046FCF7A1
:104D0000B3FBC1B2204600F009F81DB0F0BDC046AB
:104D10006F6F00005A06F000D2620000B0B50C467A
:104D20000546002C07D029780120800700F04CF8B8
:104D30006D1C641EF5E7B0BD10B51430002422468A
:104D4000FEF706FE204610BD80B5001D0122FEF7CD
:104D5000FFFD002080BD0000F8B500292DD00E46D3
:104D6000054600244460488849780143B0880843D8
:104D7000317801436960307880210143C0291DD119
:104D8000B088400A80000EA10F5AB068FCF730FDD1
:104D90000090F068B840FCF72BFD01460098FCF746
:104DA00009FC3F210906FCF76FFBFCF737FDA86102
:104DB00004212846FFF7C8FF00E004242046F8BD80
:104DC000040000000300000070B50E4604460546CE
:104DD000103503212846FDF78AFD0028F9D0206808
:104DE000FF2188438019206001212846FDF77FFDBF
:104DF0000028F9D001212046FFF79EFF002070BD5A
:104E000080B5C046C04680BD80B5C046C04680BDA6
:104E100080B500F00DF880BD1F481E210160E12122
:104E200001607047154800680006C00F7047C04613
:104E300080B5FFF7F7FF012808D100F021F86D4891
:104E40000078C00703D0F4480121017580BD00F04F
:104E500025F8C0468800002010B50F221140074BEE
:104E60001C68944361181960196820229143C00797
:104E7000800E08181860002010BDC046840F004046
:104E800005481E210160E1210160704702481E2192
:104E90000160E12101607047800F0040BFF34F8F38
:104EA000034804490160BFF34F8F00BFFDE7C046D0
:104EB0000CED00E00400FA05F8B50C46FCF7A0FC88
:104EC0000026214B3246FCF7B3FB07460D46204631
:104ED000FCF796FC04460A46384629461546224603
:104EE0002B46FCF70DFCFCF7B3FC0146153989B2E3
:104EF0004F2901D2154E09E00146643989B21529BE
:104F000001D2134E02E0782800D9124E12480078E0
:104F1000FCF76EFC01463046FCF70FFBFCF7BCFCCF
:104F200000260E4B3246FCF783FB0D4B3246FCF756
:104F3000E7FB22462B46FCF77BFB034B3246FCF794
:104F4000DFFBFCF785FCF8BD00004E40CDCC0C41EA
:104F5000CDCC3C41CDCC44415600002000000C405B
:104F60000000694010B54A1E01780123DCB2A2425C
:104F700003DD045D61405B1CF8E7C8B210BD0000B2
:104F800070B50021002807D017A2164B0A290BD0B4
:104F9000545C5C54491CF9E70FA2124B0A2903D058
:104FA000545C5C54491CF9E76E22682100281446C1
:104FB00000D10C460F4B9C716C256A2400282E46AC
:104FC00000D126465E71002800D12C461C710028B5
:104FD00000D11146D97070BD3F066D4F565B7B0EF8
:104FE0007F5F0000100200203F306D79725B5F31FF
:104FF0007F7B00000400002010B5002200290ED0A5
:10500000037812BA120C5A4013061B0F53401C03AC
:105010005C401A06D20C6240401C491EEEE790B27A
:1050200010BD002806D0002904D000220270401CC8
:10503000491EF8E770470000F8B504461F4E2048A7
:1050400070600027B760052030600B4D002C0DD03C
:10505000641EB7601B4800682946FCF75BF91849D5
:10506000081A401CB1688142FCD8EFE73068012182
:1050700088433060F8BDC046A0860100F8B50446FC
:105080000E4D0F4868600027AF60052028600D4E68
:10509000002C0DD0641EAF607D20C1003068FCF78D
:1050A00039F90749081A401CA9688142FCD8EFE782
:1050B0002868012188432860F8BDC04610E000E060
:1050C000FFFFFF004C00002010B5044601208007C0
:1050D000E1B2FFF779FE204610BDE0B50F230B408B
:1050E0000A2B01D3573300E0303301AA53704B0928
:1050F0000909052B01D3573100E0303111701146F9
:10510000FCF7B9F98CBD000000B58DB0FCF722FEAC
:10511000FCF774FEFDF726F8FCF7BAFEFCF7C0FFBB
:105120000F20012605903146FEF7FEFD0C2130468A
:10513000FFF792FE162003213246FDF775FAFFF7BE
:10514000A5FE354D0027EF77332044023349204632
:10515000FDF7B4FA4E2002902F522F6530490C61B2
:105160003048039707600F460C9630034178FF29BB
:105170000AD017210A46173AAA751F2904D00243FC
:1051800012787A54491CF5E73878C0070BD0002410
:105190002046FCF75DFD0120FFF770FF2046FDF77C
:1051A00047FEFCF7D7FDFF2004902C3006904B20E3
:1051B000C00001907D200790C0000B901A4E287D02
:1051C000002812D03878C0070FD040200024214694
:1051D000FDF722FC012808D12C752046FCF738FD8C
:1051E0002046FDF725FEFCF7B5FD03982876C0B2F2
:1051F0000728E4D82978C140C90701D100F019FF78
:10520000072801D900F015FF784400794000874451
:105210000D162476A3B2BCCB88000020FFFF00004F
:10522000040000201C20004010270000A87900285E
:1052300000D156E140200321FDF756FC55E127201F
:10524000295C2622AA5C012A00D0CEE0002901D1E7
:105250000C992954FDF744F9CBE0287B002806D0AF
:1052600028200C992954FFF703FA002028732824DA
:10527000285D012800D055E3FE4B1868FE4E3040F3
:1052800018601868C143E972FC49D9601968FC4A82
:105290001140049A11431960059909041A688A4358
:1052A0001A6000210A912955711C1A680A431A6074
:1052B000C0B2FC2800D935E3F04E3046F1A1FCF72E
:1052C000B5F8002800D176E20A98E8732920295C15
:1052D000012900D018E302996A5A5221695A914271
:1052E00000D30CE3002900D10CE3CB43D218029B7E
:1052F000EA525022AB5AC918491CA95202E30024B1
:105300000C212046FDF788FB41424141E976A87E09
:1053100007280ED3AC76FEF7A7FDFDF789FC0798AA
:105320000001FFF7ABFEFFF777FD6879F52101403B
:1053300069716879C00701D100F0E1FC6878002844
:1053400000D1ADE16C70FEF7D3FE0B98FFF796FE2F
:10535000FEF7E6FE00F0D3FC6878002801D0FFF7E6
:105360005BFDF879FF2800D133E1F879002800D0FF
:1053700031E100202EE12A20285C012801D1002003
:10538000E8852878DF2100F052FE6878002800D1F7
:105390002FE12B24285D002800D124E1FDF7BAF885
:1053A00020210020685423E140200521FDF734FB33
:1053B000002806D13878800703D5B8890121FEF787
:1053C0006FFDB889B1490818703081B2B04A914276
:1053D000314600D00146B981E87B01280DD100207B
:1053E000E8730421FDF780FB0DE0002901D00021C6
:1053F00029542878FD2100F01AFE0120E8730020CE
:105400000421FDF7E7FA40200521FDF705FB002800
:1054100014D140200021FDF7FFFA01280ED1387881
:10542000C0070BD000242046FCF712FC0120FFF738
:1054300025FE2046FDF7FCFCFCF78CFCFFF7ECFC9E
:10544000A88E002808D1402000242146FDF7E4FA68
:10545000002801D068796C714A26A85B06998842B9
:105460000FD9687800280CD100242046FCF7F0FB07
:105470000120FFF703FE2046FDF7DAFCFCF76AFC8B
:10548000AC5340200521FDF7C7FA012801D10020C7
:10549000A853288F002807D03878800704D538789B
:1054A000FD21084200D17CE100206872794E6878C5
:1054B000002800D058E100240F212046FDF7ACFA67
:1054C000002800D0B7E040200521FDF7A5FA01280B
:1054D00000D0B0E026202C54FDF71CF820202C54DE
:1054E000BAE040200321FDF775FA4C20295A491CE7
:1054F0002952A96F4F1CAF67674A11684E1C16608E
:1055000051684C1C546091684B1C9360D168491CD5
:105510000891D1601169491C099111615169491CB7
:105520000A915161295A2A46584DA942154604D973
:105530005649491C2952002028720B98C8388742C6
:1055400005D10020A86728780221014329701E2E6A
:10555000524F06D1002050490860287804210143A9
:105560002970322C4B4E06D100204B4948602878D8
:10557000082101432970642B06D100204649886028
:1055800028781021014329700898C82806D10020E6
:105590004149C8602878202101432970079880007C
:1055A0000999814206D100203B49086128784021B1
:1055B000014329700B980A99814206D1002036498F
:1055C000486128788021014329702878FE2100F065
:1055D0002EFD0120B870B878FFF7D2FC3878287813
:1055E000EF2100F024FDFCF78FFFFDF7BBFC0C98CA
:1055F0002855002406212046FDF75CFAA97F0128E2
:1056000000D1491C012802D0C8B2042804D3C8B272
:10561000032800D90421A9773878800700D407E14E
:105620003878FD21084200D002E1288F002800D1FF
:10563000F6E0AC8FF5E000260F213046FDF7ECF9DF
:10564000012806D140200421FDF7E6F9002800D109
:105650003EE126202E540F4E40200521FDF7DCF9B7
:10566000002876D02C20285C012874D101203870C5
:1056700071E0C04620100240FFFFFF7FAC01002018
:105680000000FFFF626C652064697300E70300009F
:1056900076520000102700000401002004000020C2
:1056A000402000273946FDF7B7F9002800D1B4E0C3
:1056B000402000263146FDF7AFF9012800D0CAE2AC
:1056C000D4480078800700D4C5E22E72D248066222
:1056D000D04802460078400700D548E2107800071D
:1056E00000D555E21078C00600D568E21078800633
:1056F00000D58CE21078800705D51078FD2108428E
:1057000001D100F0DBFC1078400601D500F0BEFCB2
:10571000107840B2002800D496E22320295C0029AA
:10572000EE4A104605D04800ED494018801E00881A
:10573000801825210C9A6A54E886E6480346427090
:105740000020A8741978187018780A21014319707C
:105750007AE22C202C5440200521FDF75DF9401EF3
:10576000414241412C202954687F00280FD0BA7A49
:10577000501CB8725820295A5620285AFCF700FEAF
:10578000B87A032803D10120B87200206877287FF7
:10579000002802D001200002A88328787F2100F091
:1057A00046FC687A0A28CD4E11D3687A0F280ED8A5
:1057B00025200C99A1E03046CAA1FBF737FE00284E
:1057C00000D1A1E029200C992954E9739CE0687A62
:1057D0000F2800D28BE025260024AC55288F1328F3
:1057E00002D8687B002809D001206876697B481EB2
:1057F00081410220FDF78EFF6C766C730698DD30D8
:10580000298F814205D00698DE30298F814200D051
:10581000B9E1FEF7F9FCAC55B8E10120E8701AE2F5
:10582000AC87288F001B411E88412874288FA887C9
:10583000288F002801D0E88F01E00020E887298F19
:10584000814211D101207872387238782621695C42
:10585000002916D10221084013D02020295C0029FC
:105860000DD0FDF77FFB0CE000247C723C72FEF74C
:1058700027FC6C724A202C52FCF746FE05E0002102
:10588000295400200621FDF72FF9288FE887687B2F
:10589000002805D0E87B002802D0002000F038FC6A
:1058A0002520285C012810D1F87A012803D1FEF7C1
:1058B00007FC002408E0482001242146FEF752FCA2
:1058C000E88E7978FEF7ECFAFC722878BF21AEE317
:1058D0003878022805D025202E5402203870FEF793
:1058E0001FFCFCF717FE26200C992954B3E6687AB2
:1058F000092800D9DBE5252000212954D7E55021CE
:105900000A9A6A520A99295430467849FBF78EFD63
:10591000002807D04A200A99295229200C99295495
:10592000E97329737248006880B2FF2801D00C988F
:10593000285568780028694E2ED0A87800282BD0EA
:105940000024082120466B4A9047414248410127E4
:105950003946694A9047402630463946654A90475D
:10596000414248410221644A90470B27304639465C
:10597000604EB0474142484103215F4A904720466C
:105980003946B047002801D0002000E00120042162
:10599000FEF72EFA4F4F514EA87F02280CD3FCF78A
:1059A00009FBE87D81007918EA6D0A62401CC1B2EA
:1059B000092900D90020E8753878C0063BD50124B4
:1059C0006C74687B002801D0688F0EE0688F4021DE
:1059D00068522220285C002805D040004749401822
:1059E000801E008800E001986887298F884215D9B9
:1059F00025200021295448200121FEF7B3FB387AE5
:105A0000002818D0288F698F081A80B20021FEF76D
:105A100047FA10E0040000200401002000200146A5
:105A2000FEF73EFA3878EF2101403970EC7438788F
:105A3000402101433970E87C397849063CD500287B
:105A40003AD000276F74686E3C242146FBF762FC55
:105A50000E46686E2146FBF75DFC642141438819C0
:105A60004826A853EF74687B002809D000242046FC
:105A700000F04EFB1420FFF701FB204600F048FB2E
:105A8000687D002803D100200146FDF743FE242055
:105A90002F546F66EF852F876F750F4807620C9C38
:105AA000AC71A85B0D4E801980B22146FEF7F8F963
:105AB00025202C546F73074F2878FB210140297053
:105AC0002879C00732D02879C00619D42879102146
:105AD00001432AE0040000200401002010270000F8
:105AE000E4620000626C6520636F6E00C8620000B3
:105AF00020100240192A0000F13D0000DA62000087
:105B0000402400212046FCF787FF2979002801D096
:105B1000EE2009E02879490702D40421084300E077
:105B2000204328712879EE210140297128798007C6
:105B300000D47EE22879800603D42879202101430D
:105B400013E000200C21FCF767FF2979002801D021
:105B5000DD2009E02879090701D4082100E080212F
:105B6000084328712879DD210140297161E2222052
:105B7000295C00291BD02A210C9A6A542E54EA4829
:105B80004670EE8660E0AC550120A8712C878DE44C
:105B90002320295C00292ED02A210C9A6A542E54E5
:105BA00025202A5424202E540121E0484AE02520B3
:105BB0002E542E87DC4802460078FB2122E06E74CA
:105BC00001213046FDF7A6FD22202E542A200C99F3
:105BD00029542520295424202E546E66D24A107848
:105BE000EF21014011701078042101431170EE85FE
:105BF0003046314626E025202E542E87CA480246DC
:105C00000078F72101401170FEF78AFA1CE00120AC
:105C10000A900146FDF77EFD23202E542A200C9980
:105C200029542520295424202E54AE74BE4A1078BD
:105C3000DF21014011701078082101431170EE85B9
:105C4000BA480A99FEF72CF9EE70AE866879FA2107
:105C5000014069716E73A88EB54988421AD9B2485D
:105C60000078C00716D0B0480246007802210143F0
:105C700011701078FE210140117068796F71EF701A
:105C8000AF86FCF7BBF8172003210122FCF7CCFC00
:105C900028792F71A88EA749884230D9A248007868
:105CA00080072CD5EF73FEF7EBF90B98FFF7E6F9B9
:105CB00001209D49087068796F712F87FEF700FAFF
:105CC000EF70AF8628792F7140200521FCF7A4FEE4
:105CD0000026002808D007213046FCF77BFE06216D
:105CE0003046FCF777FE0AE03046FBF7B1FF0120B3
:105CF000FFF7C4F93046FDF79BF8FCF72BF86879FD
:105D00004007FC4F64D56878002804D00120A871B2
:105D100068796C715CE0402000263146FCF77CFE1F
:105D2000002804D0EE70AE8668796E7101E0012023
:105D3000E870A88EF149884217D93878C00714D086
:105D400038780221014339703878FE2101403970DA
:105D500068796E71EE70AE86FCF750F8172003215B
:105D60000122FCF761FC28792E71A88EE449884253
:105D70002ED9387880072BD5EE73FEF781F90B9872
:105D8000FFF77CF90120387068796E712E87FEF775
:105D900097F9EE70AE8628792E7140200521FCF728
:105DA0003BFE0026002808D007213046FCF712FEF3
:105DB00006213046FCF70EFE0AE03046FBF748FFAE
:105DC0000120FFF75BF93046FDF732F8FBF7C2FF21
:105DD0006879800712D5387880070FD500260C2106
:105DE0003046FCF719FE012808D16878002800D158
:105DF000A2E00120A87168796E7135E0687900072A
:105E00002BD53878800728D500260C213046FCF7A2
:105E100003FE012821D1EE856878002801D00120F9
:105E2000A870687800281FD13878800718D538788E
:105E3000FD21084214D138783D21084210D138782C
:105E400080070DD52A200C99295425202954EE8548
:105E5000387804210143397002E03878800703D490
:105E60006879F52101406971E87C397849B20029E7
:105E70002AD5002828D0288F4627E853EC74687B61
:105E8000002809D00126304600F042F91420FFF71F
:105E9000F5F8304600F03CF9687D002803D1012078
:105EA0000021FDF737FC24202C54AC746C866C75F3
:105EB000AA4804620C9EAE71E85B2146FDF7F0FF34
:105EC00025202E546C738B4F38788006BB4E00D43F
:105ED000ABE02426A85D002819D0387A0028B74EF8
:105EE00005D0288E801980B20121FDF7D9FF288EB8
:105EF000002800D099E03878DF21014039703878E7
:105F00008021014339700120E874AC748DE0687B16
:105F1000002860D12320285C002859D040007B490C
:105F20004018801E008855E0040000201027000063
:105F3000DB050000C30900003878400723D5387816
:105F4000800720D52A202E5425200A902E54EE8535
:105F50003A462227E85D41006B4B595AE986D17ACF
:105F6000002904D0E88E5178FDF79AFFE85D0C997E
:105F70000A9AA954401CC1B20529314600D00146F5
:105F8000E9555C4F7E703878000756D43878800722
:105F900000D465E73878FD21084200D060E7387802
:105FA0003D21084200D05BE73878800700D457E7EE
:105FB00025200C9929542A20295438780821014396
:105FC00039700020E88501217C48FDF769FF47E72B
:105FD0004948401C288625202C54288E64242146BC
:105FE000FBF798F93C274743288E2146FBF792F9A7
:105FF000781880B259490B46C969424A1140014399
:10600000D961482001242146FEF7ACF8AC74394F21
:10601000387A002806D0288E6849401880B20121BD
:10602000FDF73EFF0C98A855644E2878F7210140F3
:106030002970287E401CFFF7D9F80026EE853878B5
:10604000800700D40CE725200A902E542A202E54D5
:106050003A462327E85D41002C4B595A574BC91843
:10606000E98601215170D17A002904D0E88E517857
:10607000FDF716FFE85D0C990A9AA954401CC1B2BD
:10608000052900D00646EE551A4FE9E62220295C84
:106090000029304604D048001B494018801E008863
:1060A00025210C9A6A54E886124802464670007808
:1060B00016701078062101431170C5E5288F13284A
:1060C00002D8687B002805D0697B481E81410220E8
:1060D000FDF720FB0698DD30298F814204D0069819
:1060E000DE30298F814201D1FEF78EF825202E5413
:1060F0002E8789E504000020E7030000DB0500008F
:10610000C30900000000FFFFDA620000E462000043
:10611000BCB5694600238B718B8010490A6A521CFA
:106120000A84009393B2002803D046200C4C245AD2
:1061300001E00B48048F6846847102710325857065
:10614000084D0580250A4571120AC2702204D21832
:106150000A620721FCF75EF8BCBDC04604010020BE
:10616000880000205A08000001463039C9B20929C8
:1061700001D80846704701466139C9B2062900D2E4
:106180005738C0B270470000B0B5054664242146B8
:10619000FBF7C0F821464143691A090405D00749B5
:1061A0002846FBF7B7F8491E05E080B22146FBF709
:1061B000B1F86143293988B2B0BDC046102700004C
:1061C0002021020C01D010211046020A01D01046F5
:1061D0000839020901D01046091F820801D0104673
:1061E000891E420801D0881E7047081A704702E0D5
:1061F00008C8121F08C1002AFAD17047002001E028
:1062000001C1121F002AFBD17047000010B50446DF
:1062100001E0FEF759FF2078641C03490028F8D1FB
:106220000A20FEF751FF10BD000000201F1C1F1E9A
:106230001F1E1F1F1E1F1E1F1F1D1F1E1F1E1F1F75
:106240001E1F1E1F6D63755F746D616C6C2030398D
:10625000663035643132303200000000000000004A
:10626000000000000000000000000000000000002E
:10627000000000000000000000000000000000001E
:10628000000000000000000000000000000000000E
:1062900000000000000000000000000000000000FE
:1062A00000000000000000002000000017000000B7
:1062B0001B00000050460000E02202001800000011
:1062C000F0000000E8030000676174745F6D63759F
:1062D00020000D0A00316330320032006400C80033
:1062E0009001580264002C01F401BC02E803000094
:1062F000106300000000002058000000EE61000064
:106300006863000058000020C8030000FC61000022
:1063100000000000020101686A6C6EFF01010101CA
:1063200010270000006600005A0CF3014301010130
:1063300001050000FFFF0000FFFF0000FFFF00005D
:10634000FFFF0000FFFF0000FFFF0000FFFF000055
:10635000FFFF0000FFFF0000FFFF000000093D00FD
:0863600055AA0000AA554000F7
:04000005000012C124
:00000001FF

