:020000040000FA
:1000000048020020D5000000EF0000007703000048
:1000100000000000000000000000000000000000E0
:10002000000000000000000000000000F3000000DD
:100030000000000000000000F50000002F04000098
:10004000F7030000FF030000070400000F04000096
:1000500077010000AD050000CD050000D5050000CA
:10006000CF030000D70300001F0400002704000096
:10007000870300008F030000950500009D05000028
:10008000A5050000C7030000B5050000BD05000080
:10009000C5050000E7030000ED050000170400009F
:1000A00067010000EF030000DD050000E50500002A
:1000B000DF030000BF0300007F0100006F010000AC
:1000C0000348854600F036F8004800475901000013
:1000D0004802002009480A4A002100A1814200D9B3
:1000E0000244084802600848804708480047FEE785
:1000F000FEE7FEE7FEE7FEE7FEE700000000002067
:100100000000000008ED00E041050000C100000013
:10011000D2B201E00270401C491EFBD2704700229F
:10012000F6E710B513460A4604461946FFF7F0FFF6
:10013000204610BD064C0125064E05E0E36807CCBD
:100140002B430C3C98471034B442F7D3FFF7BCFF65
:100150009C070000BC07000080B500F0F1F900F03A
:100160005FFA002080BD80B5C046C04680BD80B526
:10017000C046C04680BD80B5C046C04680BD80B583
:10018000C046C046C046C04680BD0000F0B58BB03A
:100190000D460446FF260A9602A82021FFF7BFFF5E
:1001A00004200C2C36D801210A46A2401B4B1A42CF
:1001B00030D048021A490A6A8243E807800D1018B5
:1001C00008620020174A202805D01358634302AD67
:1001D0002B50001DF7E70C2C00D103960020574A46
:1001E000574B00900196082816D00A96870002AD5A
:1001F000ED59CF193E68AE4208D00A9E741E0A948B
:10020000002E06D0CA62CB623D60F3E7401C019E1F
:10021000E9E707200BB0F0BD0098FBE7561100009E
:10022000000002407C070000F8B50146FF23009360
:10023000000C01D00420F8BD00933F4A1068C006AE
:1002400005D50098441E00940028F7D124E03B4CCB
:10025000D4603B4DD5600020C643166100931668FC
:1002600003273740022F0DD0009E771E0097002EE7
:1002700012D0D460D5601668022737430126B743F1
:100280001760ECE7087000931168C90606D500995D
:100290004B1E00930029F7D10920F8BDD460D5602A
:1002A0001061F8BD0448254901602549016000211D
:1002B000C94341607047C0462C000240F8B5FF2496
:1002C0000094020C01D0042230E000941A4B1A680A
:1002D000D20605D5009A551E0095002AF7D124E0D4
:1002E0000094164E164D1A6803271740012F0DD0A3
:1002F000009A571E0097002A17D0DE60DD601A684A
:1003000001271743022297431F60ECE7DE60DD60A0
:100310000022D7431F61017000941868C00607D5FA
:100320000098411E00910028F7D109221046F8BD1F
:10033000DE60DD601A61F9E7200002405A5A0000D1
:10034000A5A50000F8B500920D46064600240098C9
:1003500084420ED0FFF7A6FF295DA7193846FFF7A4
:10036000ADFF002803D13878295D8842FBD1641C99
:10037000EDE70020F8BD81B0002000900098002833
:10038000FCD001B0704780B5C046C04680BD80B586
:10039000C046C04680BD000080B501684168044A7F
:1003A00011605160006880F308885068804780BD04
:1003B0001800002009204002FFF7EEFFFEE780B59D
:1003C000C046C04680BD80B5C046C04680BD80B531
:1003D000C046C04680BD80B5C046C04680BD80B521
:1003E000C046C04680BD80B5C046C04680BD80B511
:1003F000C046C04680BD80B5C046C04680BD80B501
:10040000C046C04680BD80B5C046C04680BD80B5F0
:10041000C046C04680BD80B5C046C04680BD80B5E0
:10042000C046C04680BD80B5C046C04680BD80B5D0
:10043000C046C04680BD0000FCB5364806884588E9
:1004400081880191C488078C4E4A11460C3908688E
:100450000006430F042B0FD800942F487B441B79D0
:100460005B009F4402520B1013001368474803407F
:10047000B34218D1294848E0002046E09068404A3D
:100480000240BA4215D00120C0033EE0136B0324A2
:100490001C40032C074634D113683C480340B34248
:1004A0000AD11E4F2DE013680340AB420AD11C480D
:1004B0002BE04B20400228E013680340AB4208D1F8
:1004C000174F1EE013680340019CA34208D1154852
:1004D0001BE013680340019CA34208D1114F10E0B8
:1004E000126802400098824208D010480DE013685C
:1004F00003400098834203D00C4F02E00A4804E016
:10050000094F106BC005000F784309684905490F72
:10051000C840FCBD000C10000048E80100366E0128
:10052000408651010024F40000127A0000093D00C9
:1005300080B5FFF781FF0149086080BD10000020F1
:1005400010B50E48418B0E4A0A400E4CA1680E4B66
:100550000B409918A16000880C49014020680C4AA2
:10056000024050182060FFF7E3FF6069012109078E
:1005700062690A436261606110BDC046080C1000E8
:10058000FF0300000C20004000FCFFFFFF070000FD
:1005900000F8FFFF80B5C046C04680BD80B5C046AC
:1005A000C04680BD80B5C046C04680BD80B5C0464F
:1005B000C04680BD80B5C046C04680BD80B5C0463F
:1005C000C04680BD80B5C046C04680BD80B5C0462F
:1005D000C04680BD80B5C046C04680BD80B5C0461F
:1005E000C04680BD80B5C046C04680BD80B5C0460F
:1005F000C04680BD10B5002200290ED0037812BA83
:10060000120C5A4013061B0F53401C035C401A0681
:10061000D20C6240401C491EEEE790B210BD0000B3
:10062000F8B5494C00262661012528462946FFF7E2
:10063000ADFD0028F8D1FFF735FE44494448454A4E
:100640002681082E0ED083199B79775CBB4207D197
:1006500073189B18072B01D1FF2666705E1CEFE70D
:10066000002161702D03E97B8170297CC170297A9A
:10067000012906D1002121816A7B0078824200D0C5
:10068000A170A87A2073697A09020818A081A0785D
:10069000FF2855D1092046022B20A0800021E180AF
:1006A00080B289B281420CD8FFF7FCFDE08840029D
:1006B0008019FFF7B9FD0028F8D1A088E188491C0E
:1006C000EDE700202061A189884212D8FFF7EAFDFA
:1006D0006B2000022269115C21709019FFF7EEFD7A
:1006E0002169002803D12078725C8242FCD1481C29
:1006F000E8E73046FFF77EFFE0816081C1B22A7CE7
:100700008A42C9D1000AE97B8142C5D10021124841
:1007100021610D2905D04A5D63181A754919091818
:10072000F6E700202077FFF7BDFD681CFFF77CFD92
:100730000028FAD114340D2228462146FFF702FE84
:10074000FFF738FE0020F8BD200000202020000028
:1007500000000020E0DFFFFF01F0FFFF02E008C81B
:10076000121F08C1002AFAD170477047002001E02B
:1007700001C1121F002AFBD17047000020000000B9
:10078000170000001B00000050460000E02202009D
:1007900018000000F0000000E8030000C00700009F
:1007A00000000020180000005C070000D8070000CF
:1007B00018000020300200006C070000000000005C
:1007C00055AA0000AA55584654532D433031000015
:0807D00000093D0000000000DB
:1012000028040020D5120000F1120000292B000054
:1012100000000000000000000000000000000000CE
:10122000000000000000000000000000F5120000B7
:101230000000000000000000F71200009B390000D1
:10124000CD2F0000D52F0000DD2F0000E52F00007E
:101250004D2500007D3E0000B94B0000C14B000051
:10126000CD2C0000D52C0000433700004B37000088
:10127000392B0000412B0000653E00006D3E000050
:10128000753E0000C52C0000853E00008D3E00002C
:10129000953E0000BD2F0000D14D000081330000BD
:1012A000431B0000C52F0000C14D0000C94D0000C8
:1012B000DD2C0000BD2C0000DD2600001920000000
:1012C0000348854600F004FC00480047151B000059
:1012D0002804002009480A4A002100A1814200D9BF
:1012E00002440848084A0260084880470848004706
:1012F000FEE7FEE7FEE7FEE7FEE7FEE70000002070
:101300000000000008ED00E000120000D13D0000E8
:10131000C112000030B50B460146002020220124F6
:1013200009E00D46D5409D4205D31D469540491B19
:101330002546954040191546521E002DF1DC30BD62
:1013400038B50446C0681821401E4843A1684018BB
:101350003C214843616840183C21484321684518B6
:1013600060690C214843216940186921C900401A6D
:10137000302100F0A5FA114A504342190846009264
:101380001A2902DB0E49511800910C2100F098FA3D
:101390000C4A5043009A801800900B4806E0491E02
:1013A000425C074B5A43009BD21800920029F6DC9E
:1013B0002146684600F0B2FA009838BD801F8607C3
:1013C000805101008033E1013464000003460B4387
:1013D0009B0703D009E008C9121F08C0042AFAD2EB
:1013E00003E00B780370401C491C521EF9D2704771
:1013F000D2B201E00270401C491EFBD270470022AD
:10140000F6E710B513460A4604461946FFF7F0FF03
:10141000204610BD421E5378521C002BFBD10B7886
:101420001370491C521C002BF9D1704730B505468A
:101430002A460B4610781C78521C5B1C002801D0F1
:10144000A042F7D0002C03D0002802D06D1CEFE79B
:10145000284630BDCAB2401E4178401C8A4202D0A4
:101460000029F9D100207047421C0178401C002956
:10147000FBD1801A704703460A780270401C491C51
:10148000002AF9D118467047F8B502464A40D40FF1
:1014900042004B0052085B089A4202D202460846BC
:1014A00011464A0023D0C30D4A00DDB2120EAD1A18
:1014B000202D35DA49020126490AF6058A19002C41
:1014C00000D0524220214F1B1146B9402A4110182A
:1014D000C20D9A4221D0002C17D0012D08DCDA056C
:1014E000801AD20F8019D207DBB200F059FAF8BD8A
:1014F000DA05801A012340001B06C01880185A42E2
:101500008018CA0F1043490007E04908C207114379
:10151000DA05801A80194008801800F039FAF8BD01
:1015200061000122511A001BF7E70122D207514046
:10153000AAE70122D2075040A6E7024670B54A400A
:10154000D30FDB0740002DD04A002AD0010E140E25
:10155000000212020919400A520A8418E5010446E1
:101560005443000A120A2E045043A4194219200CB5
:10157000C543AA18120C0125AD03521C52191204BE
:101580007F39240400D0521C104301D44000491E6E
:10159000C2B20C06C0092018401C4008802A02D0A4
:1015A00003E0002070BD40084000002900DA002060
:1015B000184370BD70B502464A40D50F40004A003E
:1015C000ED0740085208002814D0002A12D0C40D9C
:1015D000D30D41020120C0055202490A520AE41A01
:1015E000091812187D34914201D3641C00E04900AF
:1015F000002C01DA002070BD0023914201D3891A2A
:101600000343400849000028F7D100290AD091423D
:1016100002D10121C90705E0914201D2012101E077
:101620000121C943E005C018401900F0B1F970BDAF
:10163000F0B51FB488B00B99099800244840099967
:10164000C00F490049080991C0070B990090490053
:1016500049080B9109990898A64608431CD00B9994
:101660000A98084318D0099801244000420D480008
:10167000410D099824050003000B204309900B98A5
:101680000003000B20430B9050181C494018002207
:1016900001901446104605E0002001460DB0F0BD53
:1016A000032801DA034600E003239C46C11A0AAE70
:1016B0000AE05F0008ADED5B4F00F75B7D4300275C
:1016C000AA187C41491C5B1E6145F2DD410004AB58
:1016D0005A522104120C0A43240C401C0828DFDB58
:1016E000019802900099704601910090059B049A20
:1016F0000799069800F09AF9D0E700000DFCFFFF6B
:10170000F0B50C465C4085B0E40FE40703944C0050
:10171000002664085900944649080246029622436E
:1017200021D062460A431ED06200570D4A000E03C4
:101730002303550D012402462C492405781B1B0B5D
:10174000360B401823432643614600901C46501A2E
:10175000B44103D30098401C009002E09218009816
:101760005B41002803DA0020014605B0F0BD0020EF
:10177000012109050746864611E064461D46141BF3
:10178000B54106D36546521BB341744607430C432B
:10179000A646CD0740084908284392185B410546F4
:1017A0000D43EAD11046184313D060461946504005
:1017B0007140084306D06046101AB34106D2012298
:1017C000002306E000220123DB0702E00122D243CE
:1017D0005310009874460105381C6141029C039D1A
:1017E0000019694100F015F9BFE70000FD03000092
:1017F00010B500229623114600F0D2F810BD00006B
:101800000EB505490291002100910A460B4601914F
:1018100000F00CF903B000BD33040000C20F41001A
:1018200040020123400ADB05D207090EC0187F29B8
:1018300001DA00207047962903DC9623591AC84024
:1018400001E096398840002AF4D0404270470000F9
:1018500070B5CD0F4A0009030123090B1B0519437D
:101860000B4BED070024520D9A4201DA002070BDA7
:10187000074B34339A4203DC9A1A00F035F802E041
:101880000449511888402C43F1D0404270BD0000FB
:10189000FF030000CDFBFFFFC20FD207400040084E
:1018A0000BD0C10D0723DB01C91840020905400A0E
:1018B0001143C2084007114370470020014670479A
:1018C00070B500242546002801DA01244042002991
:1018D00001DA01254942FFF71DFDAC4200D040422C
:1018E000002C00D0494270BD10B5202A04DB084608
:1018F000203AD040002110BD0B46D340D0402024D8
:10190000A21A91400843194610BD000010B50249C3
:1019100000F004F810BD00005800002070B50C461F
:1019200000683C21FFF7F6FC21603C21FFF7F2FC48
:1019300061601821FFF7EEFC0546A1600721001D3C
:10194000FFF7E8FCA1610F48A90008180E49FFF74E
:10195000E1FC0246443288086261E0613B2802D320
:10196000910700D0401C0021084B0A462161995C78
:10197000814203D8401A521C2261F8E7401CE06003
:10198000204670BD6C0B0000B505000040640000EF
:10199000002904DA401C490001D14008400070478A
:1019A00070B40024050C05D11024000402D10029D4
:1019B00021D01124050E01D100020834050F01D1F8
:1019C0000001241D850F01D18000A41C002801DB2B
:1019D0004000641C002908D020252E1B0D46F54030
:1019E000A14000D001212943084301061B1B000A26
:1019F000DB1D02D5002070BC7047DB05181880186D
:101A00000029F8DA401C4900F5D170BC40084000BC
:101A1000704710B5002B08DA0024401C6141921871
:101A20005B411A4301D14008400010BDF0B51FB41E
:101A300082B005460C0003D0084604F0C5FC02E065
:101A400004F0C2FC2030024600902146284600F0F7
:101A500051F8049B059A04460F4618431143084366
:101A600014D0184610431BD0009840210A1A18467B
:101A70000599FFF739FF05460E46009A0599049827
:101A800000F038F8084305D0012004E0204639462C
:101A900007B0F0BD0020C11705430E432C43374368
:101AA00000990E986305401A7905E40A00220C4358
:101AB000FD0A0A3002D500200146E9E701051019A8
:101AC00069410C9C0D9D00196941FFF7A2FFDFE7FA
:101AD000064C0125064E05E0E36807CC2B430C3C81
:101AE00098471034B442F7D3FFF7EEFBF8640000D8
:101AF0001865000010B5202A04DB0146203A914009
:101B0000002010BD914020239C1A0346E340194356
:101B1000904010BD80B502F05BF903F0D5FA0020CB
:101B200080BD10B504460A2104F0FAFB0C340020F5
:101B30000146102803D022585118001DF9E78808E3
:101B400010BD80B500F03AFA80BD0000F0B587B056
:101B500005AD06210291284603F043FA1C2001241A
:101B6000214602F0FBF800272F704020019003214E
:101B700004913E4E2A46B047072138462A46B047D0
:101B8000384602992A46B0472646AC702C7003941A
:101B9000019C204639462A46344B984730026880DB
:101BA000082138462A46314B9847204631462A4676
:101BB0002E4EB04733460B26204631462A461C4659
:101BC0009847384631462A46A0472346039C6C80F6
:101BD0002C7004210291019E30462A461C469847EB
:101BE0000F2138462A46A0476F80052430462146FB
:101BF00000942A461D4B9847FF20023068802F70C2
:101C0000384602992A46194B9847184B38462146C0
:101C10002A469847304634460299049E3246A44BE1
:101C20009847204639463246A14EB0470222204608
:101C30000099B047039CAC702C700C263846314696
:101C40002A460A4B984738463146049D2A46984B07
:101C5000984738462946224600F0FCFC2046294693
:101C6000224600F0F7FC07B0F0BDC046652A000030
:101C7000F8B590480125057037480024214601F049
:101C800002F98E480168A943016028020095644961
:101C90000A6802430A6000F065FC00F0B7F91D20F5
:101CA0005E4E2146B04720462146B04709202146D6
:101CB000B04710202146B04728480168594A1143CF
:101CC000016016200326264F31462A46B8471720C2
:101CD00031462246B8474027754D384621463246A0
:101CE000A847052102223846A84704213846324633
:101CF000A847009831460246194B98471948C460D6
:101D000019490160446230310162C462302181604E
:101D10001649CC610C620C60C46415490A46203235
:101D2000026444660166C4668464B0031149C860F5
:101D30003C4A0A604C6210480862CC640A644C66F3
:101D40000A6624205C490C5423200C5426200C5491
:101D50008C74CC73F8BDC046000F004080E100E0F9
:101D600055260000000D02400BF00000080C024058
:101D700015F70000800D0240FFCF000070B500F0A5
:101D800033FA00F0C9F800F0B7FB00240125234E18
:101D900020462946B0471D202946B0471020294635
:101DA000B04700F0CFF9FFF7D1FE01F0C9F800F01D
:101DB00023F900F075F900F03AF9B84801682943B1
:101DC0000160280216490A6882430A6000F0D2FBCB
:101DD000022003F033F90C20012100F09BFC0028C5
:101DE000F9D14020032100F00BFE00F0A9FB00F028
:101DF000A1FB272130484454448744868487448784
:101E00002C49084A282C03D00B19DA61241DF9E764
:101E1000202100224254C27370BDC0465D3D0000C7
:101E200004200040FFFF0000FEB5002001900821C3
:101E300002261F4D3246A847402701243846214636
:101E40003246A8470B25384629463246184B984754
:101E5000019F384629463246154B9847154D029446
:101E6000AC703C46FF26EE710721384600F052FE6A
:101E70000621384600F04EFE02F01EF97D20C0001B
:101E800003F0DCF802F030F922200B4F385C002818
:101E900002D001F087F801E001F07AF8642003F045
:101EA000CDF87C873C72FC730298A870EE71FEBD81
:101EB0002D2A000004000020880000200424004097
:101EC000F0B587B003AD10242846214603F089F809
:101ED00068460C2103F085F8002601273046394674
:101EE00001F03CFF7802A8800A4806904020039049
:101EF00001F0A6FE0590BF073846294602F00CFF08
:101F00003846314602F0F8FE3846214602F0FCFE23
:101F100007B0F0BD20A10700FEB501AC06212046A8
:101F200003F05FF81C200125294601F017FF002669
:101F30002670092730463946224600F093FD304688
:101F400039462A4600F0D4FD25700A273046394626
:101F5000224600F087FD304639462A4600F0C8FD8B
:101F6000FEBD00001F2109014C4A13688B43C006C7
:101F7000C00D1818106000207047C04602490A685A
:101F800082430A607047C046B42400400120C00369
:101F900042490A6802430A607047C046034909681B
:101FA0000140481E814108467047C046B0240040A9
:101FB000014800687047C046A024004080B5012059
:101FC000FFF7ECFF012808D1FFF7F2FF0349086093
:101FD00000F00CF80120FFF7D1FF80BDE8000020E1
:101FE000044801210160704770470000014800214A
:101FF00001607047C024004080B51C20012101F021
:10200000ADFE0020022100F07BFD80BD8E480168FE
:1020100002220A400260704780B5C046C04680BDBB
:10202000584654532D4330315F56312E350080B51C
:102030000220FFF797FFFFF7A9FF182001210A46AA
:1020400000F008FB80BD000070B5002824D00446D5
:10205000124D01262E60022002F0CEFF6078A1888A
:102060000143E088084361880143208908432968C7
:10207000014329602078B1026A688A43C007400D95
:1020800080186860A07A696804229143C007400FF5
:1020900008186860002070BD042070BD0424004052
:1020A000BFB501AC0C21204602F09BFF102001259A
:1020B000294601F053FE00F01FFA0020A072A80389
:1020C0002081E8060290680701902046FFF7BCFFD8
:1020D000BFBD000070B58EB01D200125294601F05E
:1020E0003DFE01AC3421204602F07BFF2902134E55
:1020F000304602F076FF2820255421462831087208
:1021000068050790002005906906049103900C492A
:10211000029101900A96A9070991E9050891A9057C
:1021200006910C9000F026FA04252846214600F07E
:102130003BFA284600F026FA0EB070BDB10100202F
:10214000010000017CB56E460821304602F049FFCF
:1021500009200124214601F001FE002000900C48D6
:1021600001900C4D2846314600F0A2FE284600F0B2
:1021700083FE2846214600F08DFE112002212246D2
:1021800000F068FA2846214600F07DFE7CBDC0467E
:1021900000018044000F00401FB514200124214697
:1021A00001F0DCFD68468470FF21023101801821B6
:1021B00081730B4981810B4902912102019101F048
:1021C000B5F9204601F0E0F801F0F2F817200321FC
:1021D000224600F03FFA204601F0F2F81FBDC0464B
:1021E0001704000055011004BCB51C200124214631
:1021F00001F0B4FD80250E21284600F081FC0F215E
:10220000284600F07DFC0325284601F0B1FD284654
:10221000214601F015FC022000F014FB05242046A5
:1022200001F08EFD07480090684601F033FD20461E
:1022300001F086FD01A8002181700421018001F0D8
:10224000B1FBBCBD0104030600240040F0B59BB007
:102250000C46054602AE701D5F21FFF7D0F8202026
:1022600030717420F070B070612070706720307031
:1022700001A89C4901800027BC420AD0E95D01AE5B
:10228000304602F00AFF02A83146FFF7C3F87F1C70
:10229000F2E72846214602F045FE014601AD2846F8
:1022A00002F0FBFE02AC20462946FFF7B3F8FFF729
:1022B000DBF820188F490322FFF788F82046FFF744
:1022C000D3F8C1B2204602F009FD1BB0F0BDC046F4
:1022D000F0B59DB00291064604AC2F496422204619
:1022E000FFF774F803AD2D482880F1B201962C4A0F
:1022F000284690472B4F20462946B847310A2846A2
:10230000274EB04720462946B84727498847201816
:10231000264905220092FFF759F83C210298FEF762
:10232000F9FF0746C1B22846B047204629461D4E50
:10233000B047390A28461A4A904720462946B047EE
:102340000198029902F098FD0746204616498847F1
:10235000201817A1009AFFF739F8F9B22846104E55
:10236000B047204629460F4A9047390A2846B047C9
:10237000204629460B4A90470B4DA84720185D4937
:102380000322FFF723F82046A847C1B2204602F0F7
:10239000A5FC1DB0F0BDC0464C6400006F6F00008E
:1023A0009B5000001514000069140000DD6400005B
:1023B0006435303600000000F0B595B0019203910D
:1023C00006460DAF37A11E2438462246FEF7FEFF13
:1023D00005A83CA12246FEF7F9FF04AC4148208045
:1023E000F1B2414A20469047404D38462146A84721
:1023F0000296310A20463C4EB04738462146A8474F
:10240000FFF732F838183A490522FEF7DFFF039D3F
:10241000E9B22046B04738462146344A9047290A57
:102420002046B04738462146304A9047FFF71CF80F
:102430003818019F2F490322FEF7C8FF012F07D14B
:102440000DAC2046FFF710F8C1B2204602F046FC62
:102450000298039902F010FD0646C1B204AD284669
:1024600002F01BFE05AC20462946FEF7D3FF310AD9
:10247000284602F012FE20462946FEF7CBFFFEF763
:10248000F3FF20181B490322FEF7A0FF022F07D1FC
:1024900005AC2046FEF7E8FFC1B2204602F01EFC64
:1024A00015B0F0BD6D63755F746D616C6C20313279
:1024B00030320000000000000000000000000000BA
:1024C000000000006D63755F746D616C6C20643595
:1024D0003036000000000000000000000000000096
:1024E000000000006F6F00009B50000015140000FA
:1024F000DD640000DA64000080B504480168012250
:102500000A430260022002F077FD80BD00240040F3
:1025100010B5074C2078002805D000F011F800F025
:1025200037FD002002E000F005F80120207010BD0A
:102530004C01002080B50020042100F0EBFA80BDA2
:1025400080B50020052100F0E5FA80BD80B500F0DF
:1025500067F880BD80001349425807231B049A4343
:10256000425070470120C0072A490A6882430A6026
:102570007047C0460120C00726490A6802430A6026
:102580007047C0468000034942580123DB071343CC
:1025900043507047101002408000024940584003E9
:1025A000400F704714100240F0B5002930D00C469F
:1025B00028348000174BC218002050610D688E68C7
:1025C0002E43CD6835430E692E434D6935438E69E0
:1025D0002E43CD69354326782E43566115690E4E3C
:1025E0002E4016618D882D040C4EAD19247ACE88AC
:1025F0001769761E3E432E43E40534431461CC6ACA
:102600001D6825431D600B6A9361496AD161F0BD65
:102610000420F0BD00100240000030E00000FFFF89
:1026200080B50420FFF7B8FF052802D103A003F00E
:10263000F1FE0420FFF78EFF80BDC0466461746127
:102640002072656369766520636F6D706C65746573
:10265000210D0000B0B500280BD41F230340012436
:102660009C401A4B1C60032304469C43184BE31800
:1026700006E00F230340083B0324A343124C1B191D
:102680008407E40E8907090EA140FF25A5401C68B8
:10269000AC430C431C60012A08D1002812D41F212E
:1026A0000840012181400C480160B0BD002809D4D8
:1026B0001F2108400121814006480160BFF34F8F70
:1026C000BFF36F8FB0BDC0461CED00E080E200E0BC
:1026D00000E400E080E100E000E100E080B5C046F9
:1026E000C046C046C04680BDF8B5091A490ACDB2F9
:1026F000461C0027F8B285420AD94002341800F07F
:1027000095F8204600F054F80028FAD17F1CF1E734
:10271000F8BD0000F0B58BB00D460446FF260A96C2
:1027200002A82021FEF76BFE04200C2C36D80121D4
:102730000A46A2401B4B1A4230D048021A490A6A84
:102740008243E807800D101808620020174A2028ED
:1027500005D01358634302AD2B50001DF7E70C2C36
:1027600000D1039600205E4A5E4B00900196082837
:1027700016D00A96870002ADED59CF193E68AE42D9
:1027800008D00A9E741E0A94002E06D0CA62CB623C
:102790003D60F3E7401C019EE9E707200BB0F0BD68
:1027A0000098FBE75611000000000240B0640000F2
:1027B000F8B50146FF230093000C01D00420F8BDBA
:1027C0000093464A1068C00605D50098441E009440
:1027D0000028F7D124E0424CD460424DD56000205F
:1027E000C64316610093166803273740022F0DD0A9
:1027F000009E771E0097002E12D0D460D560166818
:10280000022737430126B7431760ECE708700093AF
:102810001168C90606D500994B1E00930029F7D10F
:102820000920F8BDD460D5601061F8BD04482C497A
:1028300001602C4901600021C94341607047C046D6
:102840002C0002402549264ACA60264ACA600A6806
:102850000C239A438007000F10180860002070476F
:10286000F8B5FF240094020C01D0042230E000945B
:102870001A4B1A68D20605D5009A551E0095002AF3
:10288000F7D124E00094164E164D1A68032717401E
:10289000012F0DD0009A571E0097002A17D0DE6036
:1028A000DD601A6801271743022297431F60ECE797
:1028B000DE60DD600022D7431F610170009418685C
:1028C000C00607D50098411E00910028F7D10922C3
:1028D0001046F8BDDE60DD601A61F9E720000240B5
:1028E0005A5A0000A5A50000F8B500920D4606460C
:1028F0000024009884420ED0FFF798FF295DA719A5
:102900003846FFF7ADFF002803D13878295D8842AB
:10291000FBD1641CEDE70020F8BD0268CA4001202D
:1029200010407047FEB52A4C2AA12046FEF77EFDD6
:10293000002843D02A492046FEF778FDE5B2471B20
:102940000837F8B2261804460D213046FEF782FDFE
:10295000311F0978012200925F2937D1F11E0978D1
:102960006D2933D1B11E097863292FD1401BC11BBA
:10297000C9072BD0711E0978752927D1C0B2C01E96
:10298000C10F40184010029067080197FDB20298ED
:10299000A84215DB6C000E482018807803F0E9FC93
:1029A0000646601C0A49085C03F0E3FC0001304362
:1029B0000199691A0B4A50547F1CE7E70020FEBDBD
:1029C00002980199401A401CBB4988720098FEBDCC
:1029D000B1010020676174745F6D637500000000D1
:1029E000D06400004D01002010B5044A8018002476
:1029F000224600F0C7FF204610BDC046100E024020
:102A000080B5034A8018012200F0BCFF002080BD81
:102A1000140D024010B592001018094A80180024C5
:102A2000224600F0AFFF204610BDC04680B59200A0
:102A30001018034A8018012200F0A4FF002080BD76
:102A4000300D024080B5024A8018FFF766FF80BD56
:102A5000040D024080B5024A8018FFF75EFF80BD7A
:102A6000000E0240FEB515460E4601901949471862
:102A700038460C300024314622460294164B9847C3
:102A80001E4801990818B1000C502A783846314682
:102A9000114CA04738461C306A783146A04738466A
:102AA0002030AA783146A04738462430EA783146AB
:102AB000A0472C372A7938463146A047687901214A
:102AC000C903064A13688B43C007000CC018106086
:102AD0000298FEBD000D024085390000080F02403B
:102AE00080B5024A8018FFF718FF80BD080D02402C
:102AF000024BC01889000A5000207047000C0240A9
:102B000080B5034A8018012200F03CFF002080BD00
:102B10000C0D024080B5034A8018012200F032FFFC
:102B2000002080BD100D024081B000200090009870
:102B30000028FCD001B0704780B5C046C04680BDBB
:102B400080B5C046C04680BDF8B505464020062188
:102B5000FFF756FF0024082C21D268B20028009508
:102B600004D440200721FFF74BFF03E0402007215A
:102B7000FFF7D0FF4025062628463146FFF7CAFF5B
:102B80000127384602F038FA28463146FFF738FF69
:102B9000384602F031FA641C009D6D00DBE7F8BD99
:102BA000F8B54024072620463146FFF7B3FF062537
:102BB00020462946FFF7AEFF0127384602F01CFAEF
:102BC00020463146FFF71CFF384602F015FA204632
:102BD0002946FFF715FFF8BDF8B540240627204623
:102BE0003946FFF70DFF072520462946FFF708FF66
:102BF000012630460749884720463946FFF78AFFB5
:102C00003046044FB84720462946FFF783FF304639
:102C1000B847F8BDF94F0000B0B50124204602F0D6
:102C2000EBF940200621FFF775FF204602F0E4F99A
:102C3000002540200721FFF753FF012807D1681C1A
:102C4000E9087D290546F4D3FFF7C6FF04E04020DC
:102C50000621FFF7D5FE00242046B0BD10B58EB08A
:102C600001AC08A132222046FEF7B0FBD248002179
:102C7000C1732046FEF7F8FBC1B2204602F02EF8E1
:102C80000EB010BD6E6F64655F72657365740D0A7A
:102C90000000000000000000000000000000000034
:102CA0000000000000000000000000000000000024
:102CB00000000000000000008800002080B5C04631
:102CC000C04680BD80B500F00DF880BD80B5C0461F
:102CD000C04680BD80B5C046C04680BD80B5C046F8
:102CE000C04680BDF8B5514800F0DBF8012800D09F
:102CF0009AE04F4801780126314301704D48007831
:102D000000280AD0402000252946FFF79BFE002816
:102D100004D149480088451C00E00025464805804C
:102D2000464D2988464A1078002800D0481C288043
:102D3000FF272C37434B197880B2002907D0B842BF
:102D40000DD900201070791C2980187007E0C00888
:102D50007D2804D33C4800211170401C28803B4C46
:102D600020780007800F03D039480088401C00E01D
:102D70000020374908807D2040010988814220D108
:102D8000207840070BD4207800071AD501F0F4F919
:102D90002078F721014021702078202107E001F000
:102DA000EBF92078FB2101402170207810210143AC
:102DB0002170284800210180012022490870204903
:102DC0000870FA4802780C21114001D06988491C2A
:102DD000698089B2C937B94223D11F4A00211170D5
:102DE00003785B0603D403785B0707D504261378C2
:102DF000FA241C40147013783343137003785BB2C9
:102E0000002B04D403781B0709D5022300E0082314
:102E10001478F5252540157014781C431470027839
:102E20000170024800F028F8F8BDC046000F0040CD
:102E3000880000208B000020BE00002084000020BD
:102E40008E0000208F000020E70300000400002017
:102E5000B8000020C20000208D00002005490A684B
:102E6000042313430B60012282400868104308606A
:102E700030BF704710ED00E080B5143000210A46E5
:102E800000F080FD80BD80B50A460C30002100F0C6
:102E900079FD80BD80B50A460C300A2100F072FD34
:102EA00080BD80B510300021FFF737FD80BD0000E8
:102EB000B0B50A78C3683024A3439207920E9A18DB
:102EC000C2604A7801235C02C568A543D207920D0F
:102ED0005219C2608A781B02C4689C43D207D20D83
:102EE0001219C260CA78C3680824A343D207120F1C
:102EF0009A18C2600A79C3680424A343D207520F08
:102F00009A18C2604A79C3680224A343D207920F79
:102F10009A18C2607D22D200130405D0521EC368E5
:102F20001B06F9D5120407D0C9884268034B134029
:102F3000591841600020B0BD0920B0BD0000FFFF5E
:102F4000FEB501AD062428462146009402F049F85A
:102F50001C200127394600F001FF00262E712E703B
:102F60006F804027384621462A46FFF77BFD07241D
:102F7000384621462A46FFF775FD38460099324605
:102F8000FFF7B6FD384621463246FFF7B1FDFEBDDC
:102F900010B5002404212046FFF732FD2220064907
:102FA0000C5410BD80B500200521FFF729FD22201B
:102FB000014901220A5480BD8800002080B5C04626
:102FC000C04680BD80B5C046C04680BD80B500F01B
:102FD0000DF880BD80B500F0EBF880BD80B5C0462F
:102FE000C04680BD80B5C046C04680BDF8B5DC494E
:102FF000002008800C21FFF72DFD012808D1DF48B3
:10300000017802220A43027000200C21FFF7ECFC39
:103010000025082428462146FFF71CFD012850D131
:10302000D048058040200126022731463A46FFF766
:10303000FDFC0B2128463A46FFF7F8FCCA48007809
:10304000002833D1C94802780178120721D4002919
:1030500027D00278017805231A4221D0C90709D068
:103060000178490706D4C4490A7852000A700A78E0
:1030700032430A700178C90715D10178490712D582
:10308000BD490A7852000A700A78FE2313400B707B
:1030900009E00F2903D1B6490A78120774D40178E0
:1030A0000570B3490C700178214301700024082594
:1030B00020462946FFF798FC022220462946FFF7C2
:1030C000A9FC00240B212046FFF7C4FC01285AD19B
:1030D000A44804800821022520462A46FFF7A6FCC2
:1030E00040200B212A46FFF7A1FC9F4800780028CA
:1030F0003ED19E4801780278C90726D10178002A7E
:1031000031D00A22114226D0017889070AD50178E8
:10311000090707D498490A7852000A700A780123EF
:1031200013430B70017889070AD40178090707D582
:1031300091490A7852000A700A78FE2313400B70F6
:10314000017801220A43027012E00F2A03D1884954
:103150000A78D20721D101780470854901220A70CA
:103160000178114303E0824A01231370194301706F
:1031700000240B2520462946FFF736FC0222204674
:103180002946FFF747FCF8BD7A4A13885B1C138079
:10319000E54A15700278057084E7764A13885B1C4F
:1031A0001380E14A147002780470D7E78C00002085
:1031B000F8B5DC480024048040270526384631460F
:1031C000FFF712FC042538462946FFF70DFC384668
:1031D0002146FFF73FFC012809D168480178012208
:1031E0000A43027040200021FFF7FEFBF8BD40209B
:1031F00001273946FFF72EFC012837D159480480B2
:103200000821022620463246FFF710FC40200B2101
:103210003246FFF70BFC54480078002871D1534820
:103220000278017852075FD4002965D001780A221C
:1032300011425FD00178090709D50178890706D4C2
:103240004D490A7852000A700A783A430A700178A8
:10325000090753D40178890750D547490A785200A5
:103260000A700A78FE2313400B7047E040200B21C0
:10327000FFF7F0FB01286BD13A4804800B210225AF
:1032800020462A46FFF7D2FB4020012739462A462E
:10329000FFF7CCFB3448007800284ED13348027841
:1032A0000178920730D4002942D00178314231D0E0
:1032B0000178490709D50178C90706D12E490A784E
:1032C00052000A700A783A430A700178490731D4EB
:1032D0000178C9072ED028490A7852000A700A7866
:1032E000FE2313400B7025E00F2903D120490A78F3
:1032F000520714D4017804701D490D7001782943D8
:103300000170402401251AE00F2903D118490A78D9
:1033100092071ED416490D70017804700AE0154A10
:1033200013885B1C1380804A147002780470E4E7F1
:103330000F490D7001782943017040240B25204668
:103340002946FFF751FB022220462946FFF762FB80
:10335000F8BD754A1470074A13885B1C1380DAE7BE
:10336000D4000020DA000020890000209000002016
:1033700020020020C20000200B0000208C00002052
:1033800080B500F08BF880BDF8B50446BE4D032132
:103390000026064F28463246B847042128463246C2
:1033A000B847062128462246B847F8BD85390000AF
:1033B00080B5B5480321002200F0E4FA80BDC04684
:1033C00080B502469848072100F0DCFA80BDC0466F
:1033D00070B5FF230233984211D202460120C50383
:1033E000084C2668AE43C907090C71182160FE33EA
:1033F0001A402168044B0B401343236070BD042026
:1034000070BDC0463014004000FEFFFF80B59E48EE
:103410000321FFF782FA80BDBFB501AC204600F062
:10342000A9F803A8FEF772FAA3790F211D090B4032
:103430000A225543EB18DBB26433436163791D09FB
:103440000B405543EB18DBB25B1E036123791D096A
:103450000B405543EB18DBB2C360E3781D090B400A
:103460005543EB18DBB28361A3781D090B4055432C
:10347000EB18DBB2836063781D090B405543EB18F2
:10348000DBB24360237819401B0953435918C9B272
:103490000160FDF755FF04B0B0BD000010B5FFF7A7
:1034A000B5FF01282BD117480078002803D0164813
:1034B0000078401C00E00020134908701348007891
:1034C000002803D112480078002803D01148016871
:1034D000491C016010480078002808D00F4C208853
:1034E00002F056FF20800E480188491C01800D48DB
:1034F0000188491C01800C480178491C0170FFF7C4
:1035000057FF10BDA4000020A30000209900002058
:1035100098000020F00000209A000020BA0000204F
:10352000BC000020D400002091000020B0B504466B
:103530000020FFF745FF20783B4D29680822914382
:10354000C007000F08182860601C00F047F82079B9
:10355000072109026A688A434007400D80186860A5
:10356000E0886179FFF734FF0834204600F05EF808
:10357000B0BDC0462C490A6812060CD54A68012322
:1035800013434B60144A002A05D0521C4B689B071A
:10359000F9D5002A1ED08A680270CA6842700B688A
:1035A0000A691B0701D41F231A4082708A690271BD
:1035B0004A69C270CA6942710A6A82714868012206
:1035C000904348600A680020120602D54A689207B4
:1035D000FCD470470920704718FCFFFF10B5014666
:1035E000007801229303104A14689C43C007400CE2
:1035F000001910600B780020012B07D0002B12D18E
:1036000089780723194014689C430AE049783F29C8
:1036100001D9042010BD3F231B0214689C43890676
:10362000890C6118116010BD0014004010B51649D6
:103630000A1F13681B060BD50B6801241C430C6082
:103640007D23DB005B1E1C041CD00C68A407F9D58D
:1036500003784B6043788B608378CB6003794B6150
:1036600043798B618379CB61C07808610868012355
:103670009843086012680020120602D50A68920773
:10368000FCD410BD092010BD04140040FEB502900A
:1036900002A8FEF73BF90546067D643EF0B20A2417
:1036A0002146FDF737FE21464143711A00010843C8
:1036B0006E46B071287C471CF8B22146FDF72AFE01
:1036C00021464143791A0001084370712F7B384627
:1036D0002146FDF71FFE21464143791A00010843A8
:1036E00030712F7E38462146FDF714FE21464143B6
:1036F000791A00010843F0702F7A38462146FDF709
:1037000009FE21464143791A00010843B0702F7920
:1037100038462146FDF7FEFD21464143791A000156
:10372000084370702D7828462146FDF7F3FD444389
:10373000291B0001084330703046FFF777FF002057
:10374000FEBD80B5C046C04680BD80B5C046C046FF
:1037500080BD0000F0B585B00291064603A85F2148
:10376000017183480390FFF757FE0146814D2A8C73
:10377000814F788F0304D2182A62804C2478640623
:1037800003D47E4C2478E40603D5BA6E92B21A4371
:103790002A627A4F3C78A40709D53C78FD273C4241
:1037A00005D1754A926E92B213432B621A463523A5
:1037B0005A24EC542C4635340125132301956353C8
:1037C000E072170EA7726272130A2372E1710D0A7A
:1037D000A5710D0C6571090E2171E670674E317887
:1037E000029D002D0BD14025294008D04421614D78
:1037F000685443216F54422100236B5410E0317808
:10380000029D002D4AD149B2002947D54421002507
:10381000584E7554432175543546584E42216A54CA
:1038200041216B5491B2FEF753FD286A010C5C22D2
:10383000514FB9525E217852F87B002811D002987E
:10384000002847D0787B002844D0307802283DD12A
:10385000B87E00283AD003A85E2101710321C1700F
:1038600035E032465426B85B2121795CD268444B5E
:103870009A423BD8002939D07D21C900884235D8E9
:103880003E48C06810222146FFF72EF8B85B401C66
:10389000B8533A49C8681030C86027E03178029DB3
:1038A000002D2DD0102529402AD042210023314D52
:1038B0002E466B54412573553546304E2E4F795A5E
:1038C0004423E954090A4323E9544AE003A80521A3
:1038D000FEF7BCFC787B002806D13720052129544F
:1038E00010212046FEF7B2FC002078734220002110
:1038F0003952B986296201987877B96605B0F0BD6A
:103900003178029D002D1ED0202529401BD0442156
:103910000025184E7554432175543546174E4221E3
:103920006A5441216B54144FB98E090A3D22A9549F
:10393000B98E3E22A954B98EFEF7CAFC688C5C2170
:103940007852B88E76E7317802290A4D0A4F00D0B6
:1039500072E7412100236B5429464131CB708B70B3
:103960004B7091B2FEF7B4FC286A010C5C2260E750
:103970005A050202040100208800002004000020F3
:10398000EFFF000001238B40012A02D10168194397
:1039900001E0016899430160704780B5C046C046A8
:1039A00080BD0000B0B504460578042D18D8A800E5
:1039B00001A108588746C0461D3A0000CD390000D5
:1039C000E5390000F33900000F3A00001B48016898
:1039D00003220A430260016830220A4302601CE0AD
:1039E00004251BE00320800214494A6802434A6010
:1039F00013E0124881680C220A4382608168032226
:103A00000A438260816830220A43826005E0072011
:103A1000C0030A49CA6A0243CA620025207801210C
:103A200000F00EF8207800F0B3F9607800F012F999
:103A3000A07800F01FF92846B0BDC0461020004015
:103A400070B50C46DB4DDC49A960DC49A9602E6AE3
:103A5000042815D8784400794000874402132D3D8E
:103A60005800601E21468141286801229043401879
:103A700028600020002C65D0E9680905FCD561E0CC
:103A800004205FE001200007296A014329622F48D2
:103A9000016C03220A430264601E214681414800F2
:103AA000296802229143081828600020002C49D080
:103AB00029694906FCD545E0601E21468141880000
:103AC000296804229143081828600020002C39D06E
:103AD0006969C904FCD535E001200007296A014362
:103AE00029620320800319490A6802430A60601EA4
:103AF00021468141C800296808229143081828609E
:103B00000020002C1ED0A9694906FCD51AE001202E
:103B100001042A6A0A432A620B490A6802430A60BE
:103B2000142001F069FA601E2146814108012968CC
:103B300010229143081828600020002C02D0E96B65
:103B40004903FCD52E6270BD002400408C0D02405C
:103B5000FCB58E480688458881880191C488078C09
:103B6000AC4A11460C3908680006430F042B0FD8E5
:103B7000009471487B441B795B009F4402520B10F8
:103B800013001368A5480340B34218D1274848E002
:103B9000002046E090689E4A0240BA4215D00120BB
:103BA000C0033EE0136B03241C40032C074634D1B2
:103BB00013689A480340B3420AD11C4F2DE01368A2
:103BC0000340AB420AD11A482BE04B20400228E0C8
:103BD00013680340AB4208D1154F1EE01368034041
:103BE000019CA34208D113481BE013680340019CC9
:103BF000A34208D10F4F10E01268024000988242A1
:103C000008D00E480DE0136803400098834203D0AB
:103C10000A4F02E0084804E0074F106BC005000F90
:103C2000784309684905490FC840FCBD00366E015C
:103C3000408651010024F40000127A0000093D0082
:103C400080B5FFF785FF5B490968C904890FC84043
:103C500080BDC0465749584A8A60584A8A60072240
:103C600012020B6893434007400D181808600020AB
:103C70007047C0464F49504A8A60504A8A600322C2
:103C8000D2020B6893438007C00C1818086000200C
:103C90007047C046F0B53D490E884D888C88C9886C
:103CA0008278032A40D15B4A17685C4B1F40B742B9
:103CB00002D1C678022E3DD816681E40AE4202D10F
:103CC000C578022D36D815681D40A54202D1C478AA
:103CD000032C2FD812681A408A4202D1C1780629D3
:103CE00028D8037803214C034A4A156BA5439B0748
:103CF0005B0C5B1913634378146B1C25AC435B07A7
:103D0000DB0EE3181363C3780F246401156BA5431E
:103D10001B07DB0D5B19136380780840136B8B4323
:103D2000181810630020F0BDC178034A4A430349C4
:103D30008A42D6D90620F0BD0048E801006CDC02BA
:103D40000721C903044A13688B434007800B1818E6
:103D5000106000207047C0463C20004080B50A46F5
:103D600001460248FFF70EFE002080BD20200040E3
:103D700040000649405A2949014026480268284B1C
:103D800013405918016000207047C046000C100015
:103D900080B50849084A8A60084A8A600A68E023B0
:103DA0009A434007000E1018086000F009F8002040
:103DB00080BDC046002000405A5A0000A5A5000062
:103DC00080B5FFF7C5FE0149086080BD48000020AE
:103DD00010B50E48418B0E4A0A400E4CA1680E4B9E
:103DE0000B409918A16000880C49014020680C4ADA
:103DF000024050182060FFF7E3FF606901210907C6
:103E000062690A436261606110BDC046080C10001F
:103E1000FF0300000C20004000FCFFFFFF07000034
:103E200000F8FFFFB0B50D460446002000F04CF846
:103E3000681E032815D8C04678440079400087449E
:103E400001030507B44804E0B54802E0B54800E0C6
:103E5000B5480078002C01D0402100E0002100F09E
:103E600065F9B0BD80B5C046C04680BD80B5C046CE
:103E7000C04680BD80B5C046C04680BD80B5C04646
:103E8000C04680BD80B5C046C04680BD80B5C04636
:103E9000C04680BD80B5C046C04680BD10B500207C
:103EA00000F012F89C48007877219C4CA0479C4871
:103EB00000784F21A0479B4800780E21A0479A48E0
:103EC00000780F21A04710BD80B54820012100F0E7
:103ED0002DF980BDFEB50746584807805848017047
:103EE000009100295DD004240020E1B20191C5B207
:103EF00001998D4200D38CE002903E46BFB20A2465
:103F000038462146FDF706FA0A2F3DD3032D11D876
:103F10000246C0467D442D796D00AF44010D162840
:103F20000A2138461746FDF7F5F94648415C7A48BC
:103F3000007824E0374624E014460A213846FDF78D
:103F4000E9F94048415C764807E014460A213846C2
:103F5000FDF7E0F93B48415C72480078009A002A7E
:103F600001D08022514000F0E1F8274609E0544397
:103F7000301B80B23349095C6B480078174600F06B
:103F8000D5F80298401CB2E7032D42D87D442D7924
:103F90006D00AF4401272C37F0B22A49095C5E4816
:103FA00034E00124384680B20A2804D30A21FDF700
:103FB000B1F9641CF7E7E0B203282BD0022830D017
:103FC000012891D1564800780024C04D2146A847C9
:103FD000544800782146A847534800782146A8470E
:103FE000012481E7F0B21749095C4D4803E0F0B2C3
:103FF0001449095C4B480078009A002A07D08022B7
:10400000514004E0F0B20F49095C4748007800F0E5
:104010008DF8FEBD44480078002100F087F80324A5
:1040200062E7404800780024214600F07FF83E48CF
:104030000078214600F07AF8022455E7C0000020FD
:10404000050000201502002070B500242046FFF76F
:104050003BFF0C480078002801D0472500E0782578
:104060002D480078994E2946B0472D4800782946BA
:10407000B0472C4800783F21B0472B4800782146B4
:10408000B04770BD06000020B0B500242046FFF701
:104090001BFF214800788D4D2146A8472048007815
:1040A0002146A8471F4800782146A8471E480078A7
:1040B0002146A847B0BDC046B0B50020FFF704FFB9
:1040C000154800787F24814D2146A8471448007880
:1040D0002146A847134800782146A847124800788F
:1040E0002146A847B0BDC046B0B500242046FFF722
:1040F000EBFE094800783F21744DA8470848007836
:104100002146A847074800782146A8470648007876
:104110002146A847B0BDC046070000202D41000041
:1041200008000020090000200A000020B0B5044665
:104130000F48007800280BD00E480078002801D1E5
:104140000D4603E07F20C0430D460543682C00D098
:104150000D46FEF725FD2046FEF7F6FCFEF75CFD5A
:10416000E8B2FEF7F1FCFEF757FDFEF735FDB0BDF6
:104170000D0000209700002010B58EB001AC07A103
:1041800032222046FDF722F92046FDF76DF9C1B233
:10419000204600F0A3FD0EB010BDC0466D63755FF4
:1041A000746D616C6C203039663035620D0A000028
:1041B00000000000000000000000000000000000FF
:1041C00000000000000000000000000000000000EF
:1041D000F0B585B07D2080000490002039493B4D2A
:1041E0000870C0B203286AD84027032638460397D0
:1041F0003146354A90470120FFF766FEDC4CA07936
:104200000E21A84760793F210291A84720793E21DD
:104210000191A847E0784F21A84704982C49884786
:10422000384600963146FEF7EBFBA0790027394669
:10423000A84760793946A84720793946A847E078E9
:104240003946A847049C20462149884700F0C4FD10
:10425000039831461C4A9047C54EB0797A21A84749
:1042600070790299A84730790199A847F0783946C2
:10427000A847204616498847039E3046009C2146A1
:10428000FEF7BEFBBA4880793946A847B849487955
:104290003946A847B64800793946A847B448C07897
:1042A0003946A84704980A49884700F095FD3046EA
:1042B0002146054A904703490878401C90E705B01D
:1042C000F0BDC0461F020020152B00002D4100004C
:1042D0003D500000B0B50446D54DA97A00F022FE4D
:1042E000A97A0919491E0978884201D1A078B0BD80
:1042F000E02000F069FCB0BDF8B50446CC4EB17AC0
:1043000000F010FEB17A0919491E097888421FD1C0
:10431000B36FE178227908028018B0675D1CA8426B
:1043200001D3582573535423F35A33256F0298420F
:1043300010D25623F35AC01803013524BD48452C2A
:1043400015D02546353D3D43ED5C0555641CF6E72B
:10435000E0201DE000264D2E12D070023818451CBA
:104360002846FEF725FA0028FAD1761CF3E7462303
:10437000C2544522815435301221FDF767FFF8BD44
:1043800058200021EC4A115251657948C760A07845
:1043900000F01AFCF8BDC046F8B50546E64CA17A17
:1043A00000F0C0FDA17A4919491E0978884209D157
:1043B0006421174800916052E66E164FBE4205D840
:1043C000164804E0E02000F0FFFBF8BD124832255B
:1043D000BE42294600D82D2171430818BE4202D89A
:1043E000FF21123100E0CD21FCF794FFBE4200D83E
:1043F00005252818C1B2642900D3009867216054AC
:104400006434F820A07004212046FDF71FFFF8BD9A
:104410005A050000DC090000D612FEFF2474FEFFDE
:10442000B0B50446F14DA97A00F07CFDA97A0919CE
:10443000491E0978884205D1EE4810300B21FDF75E
:1044400005FFB0BDE02000F0BFFBB0BDB0B5E74D4B
:10445000A97AE74C204600F065FDA97A0919491EA2
:10446000097888420CD1FEF7E1F9074D2846FEF79E
:104470009FF90028FAD1DF4801214176A07800E0B9
:10448000E02000F0A1FBB0BD01100000B0B5D74D99
:10449000A97AD74C204600F045FDA97A0919491E92
:1044A0000978884219D1A07800F08EFBFFF7F6FC5E
:1044B0004024032520462946FEF72CFBFEF7CEFBC1
:1044C000FEF7CCFB1920400100F0B8FD204629463C
:1044D000FEF796FA00F080FCB0BDE02000F074FB1F
:1044E000B0BDC046F8B50446F44DA97A00F01AFDF7
:1044F000A97A0919491E097888421FD100266E74CD
:1045000001276F75EE480178C90619D4017889062C
:104510001CD40178890720D50078BD2108421CD120
:104520004448006A009080B23C21FCF7F3FE01464B
:104530000098000CFDF7CCFE6E870EE0E02014E042
:1045400001780670EF740178422204E00178067069
:10455000EF74017882220A43027026202E546E7373
:104560002E8634484662AF71A07800F02DFBF8BD6E
:1045700004000020BCB56846002101710D48009080
:10458000DC4DA97ADC4C204600F0CCFCA97A091954
:10459000491E0978884209D15420295A6846017178
:1045A000090AC1700521FDF751FEBCBDE02000F0F5
:1045B0000BFBBCBD5A060800F8B50446CD4DA87AE1
:1045C000801E81B2204600F0F7FCA97A0919491E25
:1045D0000978AA7A1219921E127812025118814291
:1045E00014D12179134BDE8BE7785A202A5A3604EE
:1045F00071183E0271182952D9618BB2002B07D075
:104600009B1A012B04D02A52E1200DE0E0200BE0A0
:104610000D2251436B20000208184421685280B2D9
:10462000611DFEF761F9A07800F0CEFAF8BDC04632
:10463000880000200401002070B5FEF773F9FE4CDD
:10464000A07B002800D070BD0025A573AA4EB078CD
:104650000146F0390F290FD87944097949008F4470
:1046600007272B2F20332020373B3E41202020449A
:10467000A148FFF72FFE49E0411E07290CD8C0468C
:104680007944097949008F4403340C380C0C3C3FC1
:10469000994800F0B1F839E0442802D1FFF7D6FE7E
:1046A00034E0A07A042831D3E02000F08DFA2DE028
:1046B000914800F013FA29E08F4800F03DFA25E018
:1046C0008D48FFF7ADFE21E08B48FFF775FF1DE039
:1046D0008948FFF761FE19E000F0BCF916E0FFF72A
:1046E000D5FE13E000F044F810E0FA4800F008F9B5
:1046F0000CE0F848FFF7F6FE08E0F648FFF7FCFD8F
:1047000004E000F0E1F801E0FFF734FF25730B4807
:1047100002680B490A4002600A4A642D04D0002353
:10472000735553556D1CF8E7491C02680A43026033
:104730000020E07270BDC0468800002020100240BA
:10474000FFFFFF7FB101002070B50025074E4A2D05
:104750000AD068028419FEF769F82046FEF728F8A7
:104760000028FAD16D1CF2E7002070BD016A00003C
:10477000F8B5F04DA97AD74C204600F0D3FBA97AC2
:104780000919491E0978884211D1A07800F01CFA55
:104790003320460200274D2F0DD078023018441CDC
:1047A0002046FEF705F80028FAD17F1CF3E7E02049
:1047B00000F00AFAF8BD58200021295269659F4887
:1047C000C6604024032520462946FEF7A3F9FEF7DC
:1047D00045FAFEF743FA1920400100F02FFC20466D
:1047E0002946FEF70DF900F039FBC046880000208D
:1047F0004D01002004000020F8B50446EB4EB17ACC
:1048000000F090FBB17A0919491E0978884220D13D
:10481000A079617909020D18207900042818E1783F
:1048200009064718002D16D0380C14D1FFF7A4FC48
:1048300001207073814801780021017002781223F1
:10484000134303707187B587B1662846FFF742FBB3
:104850002DE0E0202FE0FFF78FFC01207073002D8A
:1048600019D1380C17D07086482001252946FFF74A
:104870005DFC708E1349401880B22946FFF72AFB71
:104880000020B0666D490A7808700A782223134325
:104890000B7070870BE027200021315467480278A5
:1048A00001700278022313430370B16671870120FF
:1048B000F071B071A07800F087F9F8BD8800002091
:1048C0000400002010270000B0B5B84DA97A814C33
:1048D000204600F027FBA97A0919491E0978884269
:1048E00004D1E07805490870A07800E0E02000F0ED
:1048F0006BF9B0BD880000204D010020520000205F
:10490000FEB50546A94CA17A00F00CFBA17A491925
:10491000491E0978884212D101952120012626548A
:104920003320440200274D2F0DD078022018451C5B
:104930002846FDF73DFF0028FAD17F1CF3E7E02071
:1049400000F042F9FEBD5820002298490A52009218
:104950004A653A48C460CC6E954DAC4201D839489E
:1049600000E037483227AC42394600D82D21614358
:104970000818AC4202D8FF21123100E0CD21FCF72B
:10498000C9FCAC4200D805273818C1B2019DA878EF
:1049900000F05CF9854C607800283BD166702B4CA8
:1049A00000982B4D03282DD8029000F015FAFEF741
:1049B000EFFA78263046A047FDF7BCFDFEF7F2FA85
:1049C0003046A047FDF7BCFD3046A0470820002731
:1049D0003946A8473046A04758203946A8473046B0
:1049E000A0476F20C00001273946A8473046A0479E
:1049F00015483946A8473046A047FEF7C9FA02983D
:104A0000401CCFE7FEF7C4FA01210F48FFF762FA16
:104A1000664C019DFEF722F9E879A9790902081888
:104A20006979090440182979090640182067FEF7BA
:104A30002DFE0098A070FEBD88000020040000201C
:104A4000D612FEFF2474FEFFB82200003D50000085
:104A5000D53E000070B5EF4EB17A1E4D284600F0ED
:104A600061FAB17A4919491E097888422ED1462047
:104A7000315A6B20000200F09FFA04467067C0B202
:104A80002979814222D1260AE878B0421ED1A8783D
:104A900000F09AF8FDF7CAFE01200503681CFDF737
:104AA00087FE0028FAD1434928310D222846FDF718
:104AB0001BFF09498E70CC700D3506222846FDF784
:104AC00013FF142000F0BAFA00F0C8F9E02000F05B
:104AD0007BF870BD4D0100204C00002070B50446ED
:104AE000CC4EB17A00F01EFAB17A0919491E097844
:104AF000E02588421AD1212001213154A079732167
:104B0000715C0906081861790902081821790904FD
:104B100040183067FF2109068843E17809064018EC
:104B20003067FEF7B3FD002800D1A578284600F0D5
:104B30004BF870BD88000020BCB504461A480190AF
:104B4000B44DA97A204600F0EDF9A97A0919491E59
:104B5000097888421DD1E86E1549884205D8402061
:104B60000521FDF76FFF002819D0207B617B000233
:104B700040184621685228200E49352805D02218B1
:104B8000253A12780A54401CF7E7FFF7DDFD0028AC
:104B900003D0E02000F018F8BCBDA078FAE701A827
:104BA0000421FDF753FBBCBD5A05F2FF880000202D
:104BB000DC0900000401002080B5C046C04680BD6D
:104BC00080B5C046C04680BD70B59CB0044603ADFC
:104BD000681D5F21FCF713FC202028717420E87009
:104BE000A870612068706720287002A83849018089
:104BF0006D4600262E7114480090EC700521284661
:104C000000F090F92871052E0BD06846815D02AC4A
:104C1000204600F042FA03A82146FCF7FBFB761C75
:104C2000F1E703AC2046FCF71FFC20182A490322B9
:104C3000FCF7CCFB2046FCF717FCC1B2204600F085
:104C40004DF81CB070BDC0465A05F000F0B59DB0DF
:104C50000D46044604AE701D5F21FCF7D0FB2020FA
:104C600030717420F070B070612070706720307007
:104C700003A81749018001AE0027B7803571154898
:104C80000190F4700521304600F04CF97071062F48
:104C90000BD001A8C15D03AC204600F0FEF904A8CA
:104CA0002146FCF7B7FB7F1CF1E704AC2046FCF77C
:104CB000DBFB201808490322FCF788FB2046FCF7A1
:104CC000D3FBC1B2204600F009F81DB0F0BDC046CC
:104CD0006F6F00005A06F000DA640000B0B50C46B1
:104CE0000546002C07D029780120800700F04CF8F9
:104CF0006D1C641EF5E7B0BD10B5143000242246CB
:104D0000FEF740FE204610BD80B5001D0122FEF7D3
:104D100039FE002080BD0000F8B500292DD00E46D8
:104D2000054600244460488849780143B088084318
:104D3000317801436960307880210143C0291DD159
:104D4000B088400A80000EA10F5AB068FCF750FDF1
:104D50000090F068B840FCF74BFD01460098FCF766
:104D600029FC3F210906FCF78FFBFCF757FDA861E2
:104D700004212846FFF7C8FF00E004242046F8BDC0
:104D8000040000000300000070B50E46044605460E
:104D9000103503212846FDF7C0FD0028F9D0206812
:104DA000FF2188438019206001212846FDF7B5FDC9
:104DB0000028F9D001212046FFF79EFF002070BD9A
:104DC00080B5C046C04680BD80B5C046C04680BDE7
:104DD00080B500F00DF880BD1F481E210160E12163
:104DE00001607047154800680006C00F7047C04654
:104DF00080B5FFF7F7FF012808D100F021F86D48D2
:104E00000078C00703D003480121017580BD00F080
:104E100025F8C0468800002010B50F221140074B2E
:104E20001C68944361181960196820229143C007D7
:104E3000800E08181860002010BDC046840F004086
:104E400005481E210160E1210160704702481E21D2
:104E50000160E12101607047800F0040BFF34F8F78
:104E6000034804490160BFF34F8F00BFFDE7C04610
:104E70000CED00E00400FA05F8B50C46FCF7C0FCA8
:104E80000026214B3246FCF7D3FB07460D46204651
:104E9000FCF7B6FC04460A46384629461546224623
:104EA0002B46FCF72DFCFCF7D3FC0146153989B2E3
:104EB0004F2901D2154E09E00146643989B21529FE
:104EC00001D2134E02E0782800D9124E1248007821
:104ED000FCF78EFC01463046FCF72FFBFCF7DCFCB0
:104EE00000260E4B3246FCF7A3FB0D4B3246FCF777
:104EF00007FC22462B46FCF79BFB034B3246FCF794
:104F0000FFFBFCF7A5FCF8BD00004E40CDCC0C41EA
:104F1000CDCC3C41CDCC44415200002000000C409F
:104F20000000694010B54A1E01780123DCB2A2429C
:104F300003DD045D61405B1CF8E7C8B210BD0000F2
:104F400070B50021002807D017A2164B0A290BD0F4
:104F5000545C5C54491CF9E70FA2124B0A2903D098
:104F6000545C5C54491CF9E76E2268210028144601
:104F700000D10C460F4B9C716C256A2400282E46EC
:104F800000D126465E71002800D12C461C710028F5
:104F900000D11146D97070BD3F066D4F565B7B0E38
:104FA0007F5F0000150200203F306D79725B5F313A
:104FB0007F7B00000400002010B5002200290ED0E5
:104FC000037812BA120C5A4013061B0F53401C03ED
:104FD0005C401A06D20C6240401C491EEEE790B2BB
:104FE00010BD002806D0002904D000220270401C09
:104FF000491EF8E770470000F8B504461F4E2048E8
:1050000070600027B760052030600B4D002C0DD07C
:10501000641EB7601B4800682946FCF77BF91849F5
:10502000081A401CB1688142FCD8EFE730680121C2
:1050300088433060F8BDC046A0860100F8B504463C
:105040000E4D0F4868600027AF60052028600D4EA8
:10505000002C0DD0641EAF607D20C1003068FCF7CD
:1050600059F90749081A401CA9688142FCD8EFE7A2
:105070002868012188432860F8BDC04610E000E0A0
:10508000FFFFFF004800002010B504460120800704
:10509000E1B2FFF779FE204610BDE0B50F230B40CB
:1050A0000A2B01D3573300E0303301AA53704B0968
:1050B0000909052B01D3573100E030311170114639
:1050C000FCF7D9F98CBD000000B58DB0FCF756FE99
:1050D000FCF7AAFEFDF760F8FCF7F2FEFCF7FAFF1A
:1050E0000F20012704903946FEF738FE0C21384680
:1050F000FFF792FE162003213A46FDF7ABFAFFF7C1
:10510000A5FE2120364D00262E5433204402354979
:105110002046FDF7E9FA582001902E526E6532497B
:10512000CC603248029606600E460C9738034178F0
:10513000FF290AD013210A46133AAA751B2904D065
:10514000024312787254491CF5E73078C0070BD03F
:1051500000242046FCF78CFD0120FFF76FFF20465E
:10516000FDF77CFEFCF70AFEFF2003902C30059033
:105170004B20C1000091800007907D20C1000B9161
:1051800000010690287D002812D03078C0070FD08B
:10519000402000242146FDF755FC012808D12C753C
:1051A0002046FCF765FD2046FDF758FEFCF7E6FDBE
:1051B00002986876C0B20728E4D82978C140C907A8
:1051C00001D100F098FF072801D900F094FFC046F4
:1051D00078440079400087440B142277A4B3BDCCF7
:1051E00088000020FFFF0000040000201C20004079
:1051F000A879002800D134E140200321FDF78AFC82
:1052000033E12920295C2822AA5C012A00D020E170
:10521000002901D10C992954FDF77AF91DE1287B69
:10522000002806D02A200C992954FFF705FA0020FF
:1052300028732A24285D012800D055E3FB4F3868E5
:10524000FB4E304038603868C143FA4A1346D17289
:10525000F949F9603968F94A1140039A11433960F4
:10526000049909043A688A433A6000251D55711C67
:10527000F14E3A680A433A60C0B2FC2800D933E3E1
:105280003046EFA1FCF7D2F8002800D168E2E948E7
:105290000146C5732B20095C012900D016E3542276
:1052A000E44FBB5A0199795A994200D30BE3002984
:1052B00000D10AE3CE439B19DF4EBB525622BB5AA4
:1052C000C918491CB95200E300240C212046FDF7FF
:1052D000B9FB414241412977E87E07280ED30020DF
:1052E000E876FEF7DBFDFDF7B9FC0698FFF7A6FEB2
:1052F000FFF772FD6879F521014069716879C0078F
:1053000001D100F0E4FC6878002800D1A2E16C70C3
:10531000FEF7D2FE0B98FFF791FEFEF7E5FE00F0D8
:10532000D6FC6878002801D0FFF756FDF079FF28F9
:1053300000D112E1F079002800D010E100200DE149
:105340002C20285C012801D1002028862878DF2124
:1053500000F0CFFE6878002800D126E12D24285DDA
:10536000002800D11BE1FDF7EBF8FDF711FE00204E
:105370001AE140200521FDF765FB002814D14020EB
:105380000021FDF75FFB01280ED13078C0070BD05C
:1053900000242046FCF76CFC0120FFF74FFE20465E
:1053A000FDF75CFDFCF7EAFCFFF716FDE88E002830
:1053B00008D1402000242146FDF744FB002801D0FD
:1053C00068796C712F464C25785B059988420FD916
:1053D000787800280CD100242046FCF749FC0120F5
:1053E000FFF72CFE2046FDF739FDFCF7C7FC7C5388
:1053F00040200521FDF726FB012802D100208D4920
:1054000048538C4D688F002807D03078800704D52A
:105410003078FD21084200D199E100206872687857
:10542000002800D075E100240F212046FDF70AFB7B
:10543000002800D0DCE040200521FDF703FB012817
:1054400000D0D5E028202C54FDF77AF8FDF7A0FD18
:10545000DEE0002901D0002129542878FD2100F048
:1054600048FE40200321FDF7CBFA5226A85B401CE2
:10547000A853754A1068471C17605068411C51605A
:105480009068441C9460D068431CD3601069401C31
:10549000089010615069401C099050619069401C4F
:1054A0000A909061A85B694DA84205D96748401CE5
:1054B000604DA853002028720B98C838874208D145
:1054C0000020614A10605B480546007802260643CA
:1054D0002E701E29574D08D100205B49486028785E
:1054E0000425054353480570524D322C584E06D1C1
:1054F0000020554988602878082404432C70642BC8
:1055000006D100205049C8602878102303432B702F
:105510000898C82806D100204B4908612878202225
:1055200002432A700798C8300999814206D10020A9
:105530004549486128784021014329700B980A9910
:10554000814206D1002040498861287880210143AA
:1055500029702878FE2100F0CCFD0120B070B078D1
:10556000FFF7EEFC3078022800D00BE168780028C5
:1055700000D007E1307A002807D02720285C0028D7
:1055800003D1688F0021FEF7A5FC688F012800D0A9
:10559000F3E00120287400202B490862F2E0FCF7B8
:1055A000C9FFFDF7FFFC0C98285500240621204672
:1055B000FDF796FA20216A5C012800D1521C0128CF
:1055C00002D0D0B2042804D3D0B2032800D90422D8
:1055D0006A543078800700D40AE13078FD2108420F
:1055E00000D005E1688F002800D1F9E0EC8FF8E0E9
:1055F00000270F213846FDF725FA012806D1402063
:105600000421FDF71FFA002800D145E128202F547E
:1056100040200521FDF716FA00286FD02E20285CC7
:1056200001286DD1012030706AE0C0462010024090
:10563000FFFFFF7F88000020B10100200000FFFF76
:10564000626C65206469730004010020E7030000B8
:1056500004000020402000273946FDF7F3F9002818
:1056600000D1BAE0402000210A91FDF7EBF90128B2
:1056700000D0DCE23078800700D4D8E20A9B2B729D
:10568000D64843623078400700D559E230780007A9
:1056900000D566E23078C00600D577E23078800623
:1056A00000D59CE23078800705D53078FD2108428E
:1056B00001D100F0CDFD3078400601D500F0ADFD00
:1056C000307840B2002800D4AAE22420295C0029C6
:1056D000C34A104605D04800C2494018801E0088C1
:1056E000801827210C9A6A54288772700020A874A9
:1056F0003178307030780A2100F0A2FD2E202C5431
:1057000040200521FDF79EF9401E414241412E20D7
:105710002954A87F00280FD0B27A501CB0725E20A6
:10572000295A5C20285AFCF747FEB07A032803D197
:105730000120B0720020A877687F002803D00020E5
:1057400068770120A87728787F2100F0D2FC687A5A
:105750000A281BD3687A0F2818D827200C99B0E0A4
:105760003046A1A1FBF762FE002800D1AEE02B205D
:105770009F490C9A0A54CA73A8E0688F002801D187
:10578000002028742878EF2100F0B3FC687A0F28F5
:1057900000D290E02F46272500247C55788F1328CF
:1057A00002D8787B002809D00120B876797B481E82
:1057B00081410220FDF7CEFFBC767C730598DD3079
:1057C000798F814205D00598DE30798F814200D0F3
:1057D000C1E1FEF7FDFC7C55C0E10120E87026E246
:1057E000EC87688F001B411E88412874688FE8870A
:1057F000688F002802D04020285A02E04021002073
:105800006852698F814211D10120707230723078F4
:105810002821695C002916D10221084013D02220DA
:10582000285C00280DD0FDF7BDFB0CE0002474724D
:105830003472FEF729FC6C724C202C52FCF77AFE75
:1058400005E0FDF7A5FB00200621FDF763F9688F51
:1058500040216852687B002805D0E87B002802D0F0
:10586000002000F031FD2720285C012810D1F07ABB
:10587000012803D1FEF708FC002408E04820012499
:105880002146FEF753FC288F7178FEF723FBF47254
:105890002878BF2100F02DFC3078022805D0272081
:1058A0002F5402203070FEF71FFCFCF749FE282021
:1058B0000C992954ACE6687A092800D9AFE527206D
:1058C00000212954ABE556217D523D5430464949CB
:1058D000FBF7ACFD002807D04C2045490D522B208A
:1058E0000C9A0A54CA730A734348006880B2FF28AE
:1058F0003F4D01D00C982855687800283F4E2DD098
:10590000A87800282AD00024082120463C4EB04721
:1059100041424841012529463A4EB0474027384682
:105920002946374EB047414248410221354A904707
:105930000B2538462946B047414248410321314AA8
:10594000904720462946B047002801D0002000E0BB
:1059500001200421FEF766FA254D284E2027E85D38
:1059600002280CD3FCF73CFB287E810071182A6EBC
:10597000CA61401CC1B2092900D9002028763078BC
:10598000C00650D501246C74687B002801D0A88F14
:105990000EE0A88F422168522320285C002805D001
:1059A000400019494018801E008800E00098A88730
:1059B000698F88422AD927200021295448200121B3
:1059C000FEF7B4FB307A00282DD0688FA98F081A13
:1059D00080B20021FEF77EFA25E0C04604010020D7
:1059E00010270000EC640000626C6520636F6E009D
:1059F00088000020D0640000201002400400002035
:105A0000452A0000253E0000E26400000020014617
:105A1000FEF760FA3078EF2101403170EC74307895
:105A2000402101433170E87C3178490643D5002894
:105A300041D00A9700276F74A86E3C242146FBF7DB
:105A400069FC0E46A86E2146FBF764FC64214143C5
:105A500088194A26A853EF74687B002809D00024CF
:105A6000204600F031FC1420FFF7E8FA204600F051
:105A70002BFCEE4C607D0028ED4D294605D1002021
:105A80000D460146FDF766FE294626202754A766E7
:105A9000278667876775E74847620C9DA571A05BFD
:105AA000401880B22946FEF715FA2720255467735F
:105AB0002546E14E0A9F2878FB210140297028796C
:105AC000C0071CD02879C00603D4287910210143CF
:105AD00014E0402400212046FCF7B4FF2979002877
:105AE00001D0EE2009E02879490702D404210843B7
:105AF00000E0204328712879EE210140297128799E
:105B0000800700D4F7E22879800603D42879384347
:105B10002871F0E200200C21FCF794FF297900287D
:105B200001D0DD2009E02879090701D4082100E02F
:105B30008021084328712879DD2101402971DAE2AA
:105B40002320295C00291BD02C210C9A6A542B5449
:105B500073702B8764E07C550120B8717C873D46CB
:105B60005DE42420295C00292FD02C210C9A6A5452
:105B70002B5427202A5426202B540121AC484CE0DA
:105B800027202B546B873078FB2123E06B74012195
:105B90001846FDF7DFFD23200A9929542C200C9983
:105BA00029542720295426200A9929540A98A8669E
:105BB0003078EF2101403170307804210143317099
:105BC0000A9828860A980A9927E027202B546B8781
:105BD0003078F72101403170FEF786FA1FE001208E
:105BE00009900146FDF7B6FD24200A9929542C207E
:105BF0000C9929542720295426200A9929540A98B7
:105C0000A8743078DF2101403170307808210143D9
:105C100031700A98288686480999FEF75BF90A9B35
:105C2000EB70EB866879FA21014069716B73E88E3D
:105C30008249884217D93078C00714D030780221C1
:105C4000014331703078FE210140317068796F7105
:105C5000EF70EF86FCF7E8F8172003210122FCF72C
:105C6000F9FC28792F71E88E754988422FD9307850
:105C700080072CD5EF73FEF7E7F90B98FFF7DEF9F5
:105C80000120307068796F716F87FEF7FDF9EF7052
:105C9000EF8628792F7140200521FCF7D3FE0025DF
:105CA000002808D007212846FCF7AAFE062128462E
:105CB000FCF7A6FE0AE02846FBF7DAFF0120FFF713
:105CC000BDF92846FDF7CAF8FCF758F8574D687932
:105CD000400765D56878002804D00120A87168794C
:105CE0006C715DE0402000273946FCF7ABFE0028D0
:105CF00004D0EF70EF8668796F7101E00120E870E1
:105D0000E88E4E49884217D93078C00714D03078D1
:105D10000221014331703078FE21014031706879F1
:105D20006F71EF70EF86FCF77FF8172003210122D7
:105D3000FCF790FC28792F71E88E414988422FD9D1
:105D4000307880072CD5EF73FEF77EF90B98FFF7BC
:105D500075F90120307068796F716F87FEF794F9DB
:105D6000EF70EF8628792F7140200521FCF76AFE3D
:105D70000025002808D007212846FCF741FE06210F
:105D80002846FCF73DFE0AE02846FBF771FF01209C
:105D9000FFF754F92846FDF761F8FBF7EFFF234DB5
:105DA0006879800712D5307880070FD500270C213D
:105DB0003846FCF747FE012808D16878002800D152
:105DC000A9E00120A87168796F7142E06879000745
:105DD00038D53078800735D500270C213846FCF7B8
:105DE00031FE01282ED12F866878002801D00120AD
:105DF000A870687800282CD13078800725D53078B5
:105E0000FD21084221D130783D2108421DD1307852
:105E100080071AD52C200C992954272029542F8625
:105E200030780421014331700FE0C0468800002023
:105E3000102700000401002004000020DB05000002
:105E4000C30900003078800703D46879F521014048
:105E50006971E87C317849B200292DD500282BD012
:105E6000688F4827E8532646EC74687B00280AD0E0
:105E70000125284600F028FA1420FFF7DFF828460D
:105E8000F14D00F021FA687D002803D101200021A6
:105E9000FDF760FC262034462E54AE74AE866E7537
:105EA000EA4846620C9EAE71E85B2146FEF712F8A6
:105EB00027202E546C73F94E3078800600D4A8E069
:105EC0002627E85D002819D0307A002806D0688E91
:105ED000F449401880B20121FDF7FCFF688E0028CC
:105EE00000D096E03078DF21014031703078802199
:105EF000014331700120E874AC748AE0687B0028AB
:105F00005BD12420285C002854D04000E949401887
:105F1000801E008850E03078400723D53078800715
:105F200020D52C202F54324627200A902F542F861C
:105F30002326A85D4100DE4B595A2987D17A0029D2
:105F400004D0288F5178FDF7C5FFA85D0C990A9AF7
:105F5000A954401CC1B20529394600D00146A955B3
:105F6000CE4E77703078000700D519E13078800781
:105F700000D43EE13078FD21084200D039E130788C
:105F80003D21084200D034E13078800700D430E170
:105F90002720C1490A460C9911542C2011543078FD
:105FA000082101433170002010860121BD48FDF712
:105FB00091FF1EE1BA48401C688627202C54688E49
:105FC00064252946FBF7A6F93C264643B248408E95
:105FD0002946FBF79FF9701880B2CE490B46096A33
:105FE000B24A114001431962482001252946FEF7B3
:105FF0009DF8A9488574A84DA84E307A002806D08F
:10600000688EF049401880B20121FDF763FF0C98BB
:10601000E85530461C30FBF784FDE8660699FC31F4
:10602000401E884201D2E87D441CEC75E0B2142881
:106030004ED300200A90E8759F48E8669F4EB0470F
:10604000079D28469E4FB8479E4CA0472846B84714
:10605000B0472846B847A0472846B847B047284623
:10606000B847A0472846B847FEF7B6FEB0472846CF
:10607000B847A0472846B847B0472846B847A04782
:106080002846B847B0472846B847A0472846B847EB
:10609000B0472846B847FEF79FFEA0472846B847B6
:1060A000B0472846B847A0472846B847B0477B4E78
:1060B0002846B847012535700A9C2046FBF7D8FDD5
:1060C0002846754DB8472046FCF7C8FEFBF756FE3C
:1060D00040200521FCF7B6FC002808D1307A0028C2
:1060E00005D03078800702D56878002807D0287856
:1060F000F72101402970687E401CFFF75AF8E86ECE
:10610000401E0024684988420BD240200521FCF73C
:1061100099FC002805D14E20295A132903D8285A62
:10612000441C4E202C5260483030E96E00248142DD
:106130000CD940200521FCF785FC002806D14E2013
:10614000285A132804D85020285A441C50202C5276
:106150004E20285A142805D340200521FCF772FC54
:10616000002848D05020285A142805D34020052163
:10617000FCF768FC002844D040200521FCF762FCB5
:106180000028B4D1E87F002802D0307880073FD4BF
:1061900030788007ABD5FCF7D3F9FCF7F9FEA6E71A
:1061A0002846002505863078800722D532462720EC
:1061B000394F0A903D542C203D542426B85D4100AF
:1061C0003C4B595A7F4BC918398701215170D17AFC
:1061D000002904D0388F5178FDF77CFEB85D0C990A
:1061E0000A9AB954401CC1B2052900D00546BD55D4
:1061F0002A4E294D29E6FCF79DF9FCF7D3FE012034
:1062000004E0FCF79DF9FCF7C3FE0020E8776EE799
:10621000FCF790F9FCF7C6FE69E72320295C00290A
:10622000184604D0480022494018801E00882721C3
:106230000C9A6A542887737030783370307806214E
:1062400001433170ECE4C0468800002004010020C6
:10625000688F132802D8687B002806D0697B481E07
:1062600081410220FDF776FA0A9B0598DD30698F9F
:10627000814204D00598DE30698F814207D1FDF755
:10628000A7FF27200A9929540A986887A4E42720A1
:106290002B546B87A0E4C046880000200400002037
:1062A000E703000010270000020900000000FFFFC4
:1062B000E2640000EC640000AA0A0000412500002E
:1062C0003D500000A52F0000BCB5694600238B712E
:1062D0008B8010494A6A521C8A84009393B200282A
:1062E00003D048200C4C245A01E00B48448F6846E8
:1062F0008471027103258570084D0580250A45715A
:10630000120AC2702204D2184A620721FBF79EFFCC
:10631000BCBDC04604010020880000205A080000CF
:10632000FFB5009001914A08012A21DB93005C42ED
:1063300000260098039017460198874216D2B800AD
:1063400000990D5802963146039E002906D4306804
:10635000A84203D9F050891A3619F6E7F550029E83
:10636000761C0398001D03907F1CE5E75210DBE7C5
:10637000FFBD01463039C9B2092901D80846704726
:1063800001466139C9B2062900D25738C0B27047F8
:10639000B0B5054664242146FAF7BCFF21464143C7
:1063A000691A090405D007492846FAF7B3FF491EC0
:1063B00005E080B22146FAF7ADFF6143293988B282
:1063C000B0BDC046102700002021020C01D01021D2
:1063D0001046020A01D010460839020901D01046C1
:1063E000091F820801D01046891E420801D0881E6C
:1063F0007047081A704702E008C8121F08C1002A37
:10640000FAD17047002001E001C1121F002AFBD120
:106410007047000010B5044601E0FEF735FE207815
:10642000641C03490028F8D10A20FEF72DFE10BD98
:10643000000000201F1C1F1E1F1E1F1F1E1F1E1FCF
:106440001F1D1F1E1F1E1F1F1E1F1E1F6D63755F3A
:10645000746D616C6C2030396630356431323032A5
:10646000000000000000000000000000000000002C
:10647000000000000000000000000000000000001C
:10648000000000000000000000000000000000000C
:1064900000000000000000000000000000000000FC
:1064A00000000000000000000000000000000000EC
:1064B00020000000170000001B00000050460000F4
:1064C000E022020018000000F0000000E8030000D5
:1064D000676174745F6D637520000D0A003163306D
:1064E000320032006400C8009001580264002C01A0
:1064F000F401BC02E8030000186500000000002061
